{
  "_format": "hh-sol-artifact-1",
  "contractName": "CrossChainSwapper",
  "sourceName": "contracts/CrossChainSwapper.sol",
  "abi": [
    {
      "inputs": [
        {
          "internalType": "uint64",
          "name": "_sourceChainId",
          "type": "uint64"
        },
        {
          "components": [
            {
              "internalType": "address",
              "name": "sourceToken",
              "type": "address"
            },
            {
              "internalType": "address",
              "name": "destinationToken",
              "type": "address"
            },
            {
              "internalType": "uint64",
              "name": "destinationChainId",
              "type": "uint64"
            },
            {
              "internalType": "uint128",
              "name": "rate",
              "type": "uint128"
            }
          ],
          "internalType": "struct CrossChainSwapper.LiquidityPoolData[]",
          "name": "_validPools",
          "type": "tuple[]"
        },
        {
          "internalType": "address",
          "name": "_router",
          "type": "address"
        },
        {
          "internalType": "address",
          "name": "_linkToken",
          "type": "address"
        }
      ],
      "stateMutability": "nonpayable",
      "type": "constructor"
    },
    {
      "inputs": [
        {
          "internalType": "address",
          "name": "target",
          "type": "address"
        }
      ],
      "name": "AddressEmptyCode",
      "type": "error"
    },
    {
      "inputs": [
        {
          "internalType": "address",
          "name": "account",
          "type": "address"
        }
      ],
      "name": "AddressInsufficientBalance",
      "type": "error"
    },
    {
      "inputs": [],
      "name": "FailedInnerCall",
      "type": "error"
    },
    {
      "inputs": [],
      "name": "InvalidAmount",
      "type": "error"
    },
    {
      "inputs": [],
      "name": "InvalidPool",
      "type": "error"
    },
    {
      "inputs": [
        {
          "internalType": "address",
          "name": "router",
          "type": "address"
        }
      ],
      "name": "InvalidRouter",
      "type": "error"
    },
    {
      "inputs": [],
      "name": "InvalidToken",
      "type": "error"
    },
    {
      "inputs": [
        {
          "internalType": "uint256",
          "name": "balance",
          "type": "uint256"
        },
        {
          "internalType": "uint256",
          "name": "fees",
          "type": "uint256"
        }
      ],
      "name": "NotEnoughLink",
      "type": "error"
    },
    {
      "inputs": [],
      "name": "NotEnoughLockedTokens",
      "type": "error"
    },
    {
      "inputs": [],
      "name": "NotEnoughPoolLiquidity",
      "type": "error"
    },
    {
      "inputs": [],
      "name": "NotEnoughUnlockedTokens",
      "type": "error"
    },
    {
      "inputs": [],
      "name": "NotSwapperToken",
      "type": "error"
    },
    {
      "inputs": [
        {
          "internalType": "address",
          "name": "token",
          "type": "address"
        }
      ],
      "name": "SafeERC20FailedOperation",
      "type": "error"
    },
    {
      "anonymous": false,
      "inputs": [
        {
          "indexed": false,
          "internalType": "bytes32",
          "name": "poolKey",
          "type": "bytes32"
        },
        {
          "indexed": false,
          "internalType": "uint256",
          "name": "poolBalance",
          "type": "uint256"
        }
      ],
      "name": "MakeSwap",
      "type": "event"
    },
    {
      "anonymous": false,
      "inputs": [
        {
          "indexed": true,
          "internalType": "bytes32",
          "name": "messageId",
          "type": "bytes32"
        },
        {
          "indexed": true,
          "internalType": "bytes32",
          "name": "destinationPoolKey",
          "type": "bytes32"
        },
        {
          "components": [
            {
              "internalType": "address",
              "name": "maker",
              "type": "address"
            },
            {
              "internalType": "uint256",
              "name": "amount",
              "type": "uint256"
            }
          ],
          "indexed": false,
          "internalType": "struct CrossChainSwapper.MakerSwap[]",
          "name": "filledMakerSwaps",
          "type": "tuple[]"
        }
      ],
      "name": "MakerSwaps",
      "type": "event"
    },
    {
      "anonymous": false,
      "inputs": [
        {
          "indexed": false,
          "internalType": "bytes4",
          "name": "selector",
          "type": "bytes4"
        },
        {
          "indexed": false,
          "internalType": "bytes",
          "name": "payload",
          "type": "bytes"
        }
      ],
      "name": "ReceiverCCIPMessage",
      "type": "event"
    },
    {
      "anonymous": false,
      "inputs": [
        {
          "indexed": false,
          "internalType": "bytes",
          "name": "payload",
          "type": "bytes"
        }
      ],
      "name": "SendingCCIPMessage",
      "type": "event"
    },
    {
      "anonymous": false,
      "inputs": [
        {
          "indexed": true,
          "internalType": "bytes32",
          "name": "messageId",
          "type": "bytes32"
        },
        {
          "indexed": true,
          "internalType": "bytes32",
          "name": "destinationPoolKey",
          "type": "bytes32"
        },
        {
          "indexed": false,
          "internalType": "uint256",
          "name": "sourceAmount",
          "type": "uint256"
        },
        {
          "indexed": false,
          "internalType": "uint256",
          "name": "destinationAmount",
          "type": "uint256"
        }
      ],
      "name": "TakeSwap",
      "type": "event"
    },
    {
      "inputs": [
        {
          "internalType": "uint256",
          "name": "chainId",
          "type": "uint256"
        },
        {
          "components": [
            {
              "internalType": "uint64",
              "name": "ccipChainSelector",
              "type": "uint64"
            },
            {
              "internalType": "address",
              "name": "swapper",
              "type": "address"
            }
          ],
          "internalType": "struct CrossChainSwapper.DestinationData",
          "name": "_destination",
          "type": "tuple"
        }
      ],
      "name": "addDestination",
      "outputs": [],
      "stateMutability": "nonpayable",
      "type": "function"
    },
    {
      "inputs": [
        {
          "components": [
            {
              "internalType": "address",
              "name": "sourceToken",
              "type": "address"
            },
            {
              "internalType": "address",
              "name": "destinationToken",
              "type": "address"
            },
            {
              "internalType": "uint64",
              "name": "destinationChainId",
              "type": "uint64"
            },
            {
              "internalType": "uint128",
              "name": "rate",
              "type": "uint128"
            }
          ],
          "internalType": "struct CrossChainSwapper.LiquidityPoolData",
          "name": "_pool",
          "type": "tuple"
        }
      ],
      "name": "addLiquidityPool",
      "outputs": [],
      "stateMutability": "nonpayable",
      "type": "function"
    },
    {
      "inputs": [],
      "name": "allMakerSwaps",
      "outputs": [
        {
          "components": [
            {
              "internalType": "address",
              "name": "maker",
              "type": "address"
            },
            {
              "internalType": "uint256",
              "name": "amount",
              "type": "uint256"
            },
            {
              "internalType": "address",
              "name": "sourceToken",
              "type": "address"
            },
            {
              "internalType": "address",
              "name": "destinationToken",
              "type": "address"
            },
            {
              "internalType": "uint64",
              "name": "destinationChainId",
              "type": "uint64"
            },
            {
              "internalType": "uint128",
              "name": "rate",
              "type": "uint128"
            }
          ],
          "internalType": "struct CrossChainSwapper.MakerSwapAll[]",
          "name": "makerSwaps_",
          "type": "tuple[]"
        }
      ],
      "stateMutability": "view",
      "type": "function"
    },
    {
      "inputs": [
        {
          "internalType": "address",
          "name": "sourceToken",
          "type": "address"
        },
        {
          "internalType": "address",
          "name": "destinationToken",
          "type": "address"
        },
        {
          "internalType": "uint64",
          "name": "destinationChainId",
          "type": "uint64"
        },
        {
          "internalType": "uint256",
          "name": "rate",
          "type": "uint256"
        }
      ],
      "name": "calcPoolKey",
      "outputs": [
        {
          "internalType": "bytes32",
          "name": "poolKey",
          "type": "bytes32"
        }
      ],
      "stateMutability": "pure",
      "type": "function"
    },
    {
      "inputs": [
        {
          "internalType": "bytes32",
          "name": "poolKey",
          "type": "bytes32"
        },
        {
          "internalType": "uint256",
          "name": "amount",
          "type": "uint256"
        }
      ],
      "name": "cancelSwap",
      "outputs": [],
      "stateMutability": "nonpayable",
      "type": "function"
    },
    {
      "inputs": [
        {
          "components": [
            {
              "internalType": "bytes32",
              "name": "messageId",
              "type": "bytes32"
            },
            {
              "internalType": "uint64",
              "name": "sourceChainSelector",
              "type": "uint64"
            },
            {
              "internalType": "bytes",
              "name": "sender",
              "type": "bytes"
            },
            {
              "internalType": "bytes",
              "name": "data",
              "type": "bytes"
            },
            {
              "components": [
                {
                  "internalType": "address",
                  "name": "token",
                  "type": "address"
                },
                {
                  "internalType": "uint256",
                  "name": "amount",
                  "type": "uint256"
                }
              ],
              "internalType": "struct Client.EVMTokenAmount[]",
              "name": "destTokenAmounts",
              "type": "tuple[]"
            }
          ],
          "internalType": "struct Client.Any2EVMMessage",
          "name": "message",
          "type": "tuple"
        }
      ],
      "name": "ccipReceive",
      "outputs": [],
      "stateMutability": "nonpayable",
      "type": "function"
    },
    {
      "inputs": [
        {
          "internalType": "address",
          "name": "token",
          "type": "address"
        },
        {
          "internalType": "uint256",
          "name": "amount",
          "type": "uint256"
        }
      ],
      "name": "deposit",
      "outputs": [],
      "stateMutability": "nonpayable",
      "type": "function"
    },
    {
      "inputs": [
        {
          "internalType": "uint256",
          "name": "",
          "type": "uint256"
        }
      ],
      "name": "destinations",
      "outputs": [
        {
          "internalType": "uint64",
          "name": "ccipChainSelector",
          "type": "uint64"
        },
        {
          "internalType": "address",
          "name": "swapper",
          "type": "address"
        }
      ],
      "stateMutability": "view",
      "type": "function"
    },
    {
      "inputs": [],
      "name": "getRouter",
      "outputs": [
        {
          "internalType": "address",
          "name": "",
          "type": "address"
        }
      ],
      "stateMutability": "view",
      "type": "function"
    },
    {
      "inputs": [],
      "name": "linkToken",
      "outputs": [
        {
          "internalType": "address",
          "name": "",
          "type": "address"
        }
      ],
      "stateMutability": "view",
      "type": "function"
    },
    {
      "inputs": [
        {
          "internalType": "bytes32",
          "name": "",
          "type": "bytes32"
        }
      ],
      "name": "liquidityPools",
      "outputs": [
        {
          "internalType": "uint256",
          "name": "balance",
          "type": "uint256"
        },
        {
          "components": [
            {
              "internalType": "uint128",
              "name": "next",
              "type": "uint128"
            },
            {
              "internalType": "uint128",
              "name": "last",
              "type": "uint128"
            }
          ],
          "internalType": "struct CrossChainSwapper.QueueMetaData",
          "name": "queueData",
          "type": "tuple"
        },
        {
          "components": [
            {
              "internalType": "address",
              "name": "sourceToken",
              "type": "address"
            },
            {
              "internalType": "address",
              "name": "destinationToken",
              "type": "address"
            },
            {
              "internalType": "uint64",
              "name": "destinationChainId",
              "type": "uint64"
            },
            {
              "internalType": "uint128",
              "name": "rate",
              "type": "uint128"
            }
          ],
          "internalType": "struct CrossChainSwapper.LiquidityPoolData",
          "name": "poolData",
          "type": "tuple"
        }
      ],
      "stateMutability": "view",
      "type": "function"
    },
    {
      "inputs": [
        {
          "internalType": "address",
          "name": "sourceToken",
          "type": "address"
        },
        {
          "internalType": "address",
          "name": "destinationToken",
          "type": "address"
        },
        {
          "internalType": "uint64",
          "name": "destinationChainId",
          "type": "uint64"
        },
        {
          "internalType": "uint256",
          "name": "rate",
          "type": "uint256"
        },
        {
          "internalType": "uint256",
          "name": "amount",
          "type": "uint256"
        }
      ],
      "name": "makeSwap",
      "outputs": [],
      "stateMutability": "nonpayable",
      "type": "function"
    },
    {
      "inputs": [
        {
          "internalType": "bytes32",
          "name": "poolKey",
          "type": "bytes32"
        }
      ],
      "name": "makerSwaps",
      "outputs": [
        {
          "components": [
            {
              "internalType": "address",
              "name": "maker",
              "type": "address"
            },
            {
              "internalType": "uint256",
              "name": "amount",
              "type": "uint256"
            },
            {
              "internalType": "address",
              "name": "sourceToken",
              "type": "address"
            },
            {
              "internalType": "address",
              "name": "destinationToken",
              "type": "address"
            },
            {
              "internalType": "uint64",
              "name": "destinationChainId",
              "type": "uint64"
            },
            {
              "internalType": "uint128",
              "name": "rate",
              "type": "uint128"
            }
          ],
          "internalType": "struct CrossChainSwapper.MakerSwapAll[]",
          "name": "makerSwaps_",
          "type": "tuple[]"
        }
      ],
      "stateMutability": "view",
      "type": "function"
    },
    {
      "inputs": [],
      "name": "sourceChainId",
      "outputs": [
        {
          "internalType": "uint64",
          "name": "",
          "type": "uint64"
        }
      ],
      "stateMutability": "view",
      "type": "function"
    },
    {
      "inputs": [
        {
          "internalType": "bytes4",
          "name": "interfaceId",
          "type": "bytes4"
        }
      ],
      "name": "supportsInterface",
      "outputs": [
        {
          "internalType": "bool",
          "name": "",
          "type": "bool"
        }
      ],
      "stateMutability": "pure",
      "type": "function"
    },
    {
      "inputs": [
        {
          "internalType": "address",
          "name": "sourceToken",
          "type": "address"
        },
        {
          "internalType": "address",
          "name": "destinationToken",
          "type": "address"
        },
        {
          "internalType": "uint64",
          "name": "destinationChainId",
          "type": "uint64"
        },
        {
          "internalType": "uint256",
          "name": "rate",
          "type": "uint256"
        },
        {
          "internalType": "uint256",
          "name": "amount",
          "type": "uint256"
        }
      ],
      "name": "takeSwap",
      "outputs": [],
      "stateMutability": "nonpayable",
      "type": "function"
    },
    {
      "inputs": [
        {
          "internalType": "address",
          "name": "",
          "type": "address"
        },
        {
          "internalType": "address",
          "name": "",
          "type": "address"
        }
      ],
      "name": "userBalances",
      "outputs": [
        {
          "internalType": "uint128",
          "name": "locked",
          "type": "uint128"
        },
        {
          "internalType": "uint128",
          "name": "unlocked",
          "type": "uint128"
        }
      ],
      "stateMutability": "view",
      "type": "function"
    },
    {
      "inputs": [
        {
          "internalType": "address",
          "name": "user",
          "type": "address"
        }
      ],
      "name": "userMakerSwaps",
      "outputs": [
        {
          "components": [
            {
              "internalType": "address",
              "name": "maker",
              "type": "address"
            },
            {
              "internalType": "uint256",
              "name": "amount",
              "type": "uint256"
            },
            {
              "internalType": "address",
              "name": "sourceToken",
              "type": "address"
            },
            {
              "internalType": "address",
              "name": "destinationToken",
              "type": "address"
            },
            {
              "internalType": "uint64",
              "name": "destinationChainId",
              "type": "uint64"
            },
            {
              "internalType": "uint128",
              "name": "rate",
              "type": "uint128"
            }
          ],
          "internalType": "struct CrossChainSwapper.MakerSwapAll[]",
          "name": "makerSwaps_",
          "type": "tuple[]"
        }
      ],
      "stateMutability": "view",
      "type": "function"
    },
    {
      "inputs": [
        {
          "internalType": "bytes32",
          "name": "",
          "type": "bytes32"
        }
      ],
      "name": "validPools",
      "outputs": [
        {
          "internalType": "bool",
          "name": "",
          "type": "bool"
        }
      ],
      "stateMutability": "view",
      "type": "function"
    },
    {
      "inputs": [
        {
          "internalType": "address",
          "name": "",
          "type": "address"
        }
      ],
      "name": "validSourceTokens",
      "outputs": [
        {
          "internalType": "bool",
          "name": "",
          "type": "bool"
        }
      ],
      "stateMutability": "view",
      "type": "function"
    },
    {
      "inputs": [
        {
          "internalType": "address",
          "name": "token",
          "type": "address"
        },
        {
          "internalType": "uint256",
          "name": "amount",
          "type": "uint256"
        }
      ],
      "name": "withdraw",
      "outputs": [],
      "stateMutability": "nonpayable",
      "type": "function"
    }
  ],
  "bytecode": "0x60e06040523480156200001157600080fd5b5060405162006714380380620067148339818101604052810190620000379190620007c2565b81600073ffffffffffffffffffffffffffffffffffffffff168173ffffffffffffffffffffffffffffffffffffffff1603620000ad5760006040517fd7f73334000000000000000000000000000000000000000000000000000000008152600401620000a4919062000864565b60405180910390fd5b8073ffffffffffffffffffffffffffffffffffffffff1660808173ffffffffffffffffffffffffffffffffffffffff1681525050508367ffffffffffffffff1660a08167ffffffffffffffff16815250508073ffffffffffffffffffffffffffffffffffffffff1660c08173ffffffffffffffffffffffffffffffffffffffff168152505060005b835181101562000179576200016d84828151811062000159576200015862000881565b5b60200260200101516200022860201b60201c565b80600101905062000135565b508073ffffffffffffffffffffffffffffffffffffffff1663095ea7b3837fffffffffffffffffffffffffffffffffffffffffffffffffffffffffffffffff6040518363ffffffff1660e01b8152600401620001d7929190620008cb565b6020604051808303816000875af1158015620001f7573d6000803e3d6000fd5b505050506040513d601f19601f820116820180604052508101906200021d919062000935565b5050505050620009c5565b600160046000836000015173ffffffffffffffffffffffffffffffffffffffff1673ffffffffffffffffffffffffffffffffffffffff16815260200190815260200160002060006101000a81548160ff0219169083151502179055506000620002bc82600001518360200151846040015185606001516fffffffffffffffffffffffffffffffff166200047d60201b60201c565b905060016005600083815260200190815260200160002060006101000a81548160ff021916908315150217905550600180600083815260200190815260200160002060020160000160006101000a8154816fffffffffffffffffffffffffffffffff02191690836fffffffffffffffffffffffffffffffff160217905550816001600083815260200190815260200160002060030160008201518160000160006101000a81548173ffffffffffffffffffffffffffffffffffffffff021916908373ffffffffffffffffffffffffffffffffffffffff16021790555060208201518160010160006101000a81548173ffffffffffffffffffffffffffffffffffffffff021916908373ffffffffffffffffffffffffffffffffffffffff16021790555060408201518160010160146101000a81548167ffffffffffffffff021916908367ffffffffffffffff16021790555060608201518160020160006101000a8154816fffffffffffffffffffffffffffffffff02191690836fffffffffffffffffffffffffffffffff16021790555090505060028190806001815401808255809150506001900390600052602060002001600090919091909150555050565b60008484848460405160200162000498949392919062000978565b604051602081830303815290604052805190602001209050949350505050565b6000604051905090565b600080fd5b600080fd5b600067ffffffffffffffff82169050919050565b620004eb81620004cc565b8114620004f757600080fd5b50565b6000815190506200050b81620004e0565b92915050565b600080fd5b6000601f19601f8301169050919050565b7f4e487b7100000000000000000000000000000000000000000000000000000000600052604160045260246000fd5b620005618262000516565b810181811067ffffffffffffffff8211171562000583576200058262000527565b5b80604052505050565b600062000598620004b8565b9050620005a6828262000556565b919050565b600067ffffffffffffffff821115620005c957620005c862000527565b5b602082029050602081019050919050565b600080fd5b600080fd5b600073ffffffffffffffffffffffffffffffffffffffff82169050919050565b60006200061182620005e4565b9050919050565b620006238162000604565b81146200062f57600080fd5b50565b600081519050620006438162000618565b92915050565b60006fffffffffffffffffffffffffffffffff82169050919050565b620006708162000649565b81146200067c57600080fd5b50565b600081519050620006908162000665565b92915050565b600060808284031215620006af57620006ae620005df565b5b620006bb60806200058c565b90506000620006cd8482850162000632565b6000830152506020620006e38482850162000632565b6020830152506040620006f984828501620004fa565b60408301525060606200070f848285016200067f565b60608301525092915050565b6000620007326200072c84620005ab565b6200058c565b90508083825260208201905060808402830185811115620007585762000757620005da565b5b835b8181101562000785578062000770888262000696565b8452602084019350506080810190506200075a565b5050509392505050565b600082601f830112620007a757620007a662000511565b5b8151620007b98482602086016200071b565b91505092915050565b60008060008060808587031215620007df57620007de620004c2565b5b6000620007ef87828801620004fa565b945050602085015167ffffffffffffffff811115620008135762000812620004c7565b5b62000821878288016200078f565b9350506040620008348782880162000632565b9250506060620008478782880162000632565b91505092959194509250565b6200085e8162000604565b82525050565b60006020820190506200087b600083018462000853565b92915050565b7f4e487b7100000000000000000000000000000000000000000000000000000000600052603260045260246000fd5b6000819050919050565b620008c581620008b0565b82525050565b6000604082019050620008e2600083018562000853565b620008f16020830184620008ba565b9392505050565b60008115159050919050565b6200090f81620008f8565b81146200091b57600080fd5b50565b6000815190506200092f8162000904565b92915050565b6000602082840312156200094e576200094d620004c2565b5b60006200095e848285016200091e565b91505092915050565b6200097281620004cc565b82525050565b60006080820190506200098f600083018762000853565b6200099e602083018662000853565b620009ad604083018562000967565b620009bc6060830184620008ba565b95945050505050565b60805160a05160c051615cd262000a4260003960008181611e6c015281816130730152818161317d01528181613fdd01526140e70152600081816109bf015281816113220152613b2f015260008181611e900152818161256c015281816130d9015281816132600152818161404301526141cc0152615cd26000f3fe608060405234801561001057600080fd5b50600436106101375760003560e01c80634ece6dfc116100b857806396dcecbe1161007c57806396dcecbe1461035d57806398a5410a1461038d578063adb51980146103ab578063b0f479a1146103dc578063cfedc644146103fa578063f3fef3a31461042c57610137565b80634ece6dfc146102a657806351369e77146102c257806357970e93146102f257806385572ffb146103105780638dd4ba2e1461032c57610137565b80631e79d399116100ff5780631e79d399146101f257806325669e831461020e57806330e325551461023e57806347e7ef241461026e5780634e9695151461028a57610137565b806301ffc9a71461013c578063028dcabe1461016c57806314488fe4146101885780631544298e146101a45780631d06df6e146101c2575b600080fd5b610156600480360381019061015191906145ca565b610448565b6040516101639190614612565b60405180910390f35b61018660048036038101906101819190614821565b61051a565b005b6101a2600480360381019061019d91906148ba565b610526565b005b6101ac6109bd565b6040516101b99190614909565b60405180910390f35b6101dc60048036038101906101d79190614924565b6109e1565b6040516101e99190614ab7565b60405180910390f35b61020c60048036038101906102079190614b29565b610ee4565b005b61022860048036038101906102239190614b69565b610f75565b6040516102359190614612565b60405180910390f35b61025860048036038101906102539190614924565b610f95565b6040516102659190614612565b60405180910390f35b61028860048036038101906102839190614b96565b610fb5565b005b6102a4600480360381019061029f9190614bd6565b610fc3565b005b6102c060048036038101906102bb9190614bd6565b61140d565b005b6102dc60048036038101906102d79190614b69565b6118f5565b6040516102e99190614ab7565b60405180910390f35b6102fa611e6a565b6040516103079190614c60565b60405180910390f35b61032a60048036038101906103259190614c9f565b611e8e565b005b61034660048036038101906103419190614ce8565b611f33565b604051610354929190614d15565b60405180910390f35b61037760048036038101906103729190614d3e565b611f8b565b6040516103849190614db4565b60405180910390f35b610395611fc4565b6040516103a29190614ab7565b60405180910390f35b6103c560048036038101906103c09190614dcf565b6124ff565b6040516103d3929190614e1e565b60405180910390f35b6103e4612568565b6040516103f19190614c60565b60405180910390f35b610414600480360381019061040f9190614924565b612590565b60405161042393929190614eda565b60405180910390f35b61044660048036038101906104419190614b96565b61278a565b005b60007f85572ffb000000000000000000000000000000000000000000000000000000007bffffffffffffffffffffffffffffffffffffffffffffffffffffffff1916827bffffffffffffffffffffffffffffffffffffffffffffffffffffffff1916148061051357507f01ffc9a7000000000000000000000000000000000000000000000000000000007bffffffffffffffffffffffffffffffffffffffffffffffffffffffff1916827bffffffffffffffffffffffffffffffffffffffffffffffffffffffff1916145b9050919050565b61052381612a5b565b50565b6005600083815260200190815260200160002060009054906101000a900460ff1661057d576040517f2083cd4000000000000000000000000000000000000000000000000000000000815260040160405180910390fd5b6000600160008481526020019081526020016000206003016040518060800160405290816000820160009054906101000a900473ffffffffffffffffffffffffffffffffffffffff1673ffffffffffffffffffffffffffffffffffffffff1673ffffffffffffffffffffffffffffffffffffffff1681526020016001820160009054906101000a900473ffffffffffffffffffffffffffffffffffffffff1673ffffffffffffffffffffffffffffffffffffffff1673ffffffffffffffffffffffffffffffffffffffff1681526020016001820160149054906101000a900467ffffffffffffffff1667ffffffffffffffff1667ffffffffffffffff1681526020016002820160009054906101000a90046fffffffffffffffffffffffffffffffff166fffffffffffffffffffffffffffffffff166fffffffffffffffffffffffffffffffff1681525050905060008060003373ffffffffffffffffffffffffffffffffffffffff1673ffffffffffffffffffffffffffffffffffffffff1681526020019081526020016000206000836000015173ffffffffffffffffffffffffffffffffffffffff1673ffffffffffffffffffffffffffffffffffffffff1681526020019081526020016000206040518060400160405290816000820160009054906101000a90046fffffffffffffffffffffffffffffffff166fffffffffffffffffffffffffffffffff166fffffffffffffffffffffffffffffffff1681526020016000820160109054906101000a90046fffffffffffffffffffffffffffffffff166fffffffffffffffffffffffffffffffff166fffffffffffffffffffffffffffffffff168152505090508281600001516fffffffffffffffffffffffffffffffff16101561083c576040517f1925ea0600000000000000000000000000000000000000000000000000000000815260040160405180910390fd5b60405180604001604052808483600001516fffffffffffffffffffffffffffffffff166108699190614f40565b6fffffffffffffffffffffffffffffffff1681526020018483602001516fffffffffffffffffffffffffffffffff166108a29190614f74565b6fffffffffffffffffffffffffffffffff168152506000803373ffffffffffffffffffffffffffffffffffffffff1673ffffffffffffffffffffffffffffffffffffffff1681526020019081526020016000206000846000015173ffffffffffffffffffffffffffffffffffffffff1673ffffffffffffffffffffffffffffffffffffffff16815260200190815260200160002060008201518160000160006101000a8154816fffffffffffffffffffffffffffffffff02191690836fffffffffffffffffffffffffffffffff16021790555060208201518160000160106101000a8154816fffffffffffffffffffffffffffffffff02191690836fffffffffffffffffffffffffffffffff16021790555090505050505050565b7f000000000000000000000000000000000000000000000000000000000000000081565b606060006001600084815260200190815260200160002090506000816003016040518060800160405290816000820160009054906101000a900473ffffffffffffffffffffffffffffffffffffffff1673ffffffffffffffffffffffffffffffffffffffff1673ffffffffffffffffffffffffffffffffffffffff1681526020016001820160009054906101000a900473ffffffffffffffffffffffffffffffffffffffff1673ffffffffffffffffffffffffffffffffffffffff1673ffffffffffffffffffffffffffffffffffffffff1681526020016001820160149054906101000a900467ffffffffffffffff1667ffffffffffffffff1667ffffffffffffffff1681526020016002820160009054906101000a90046fffffffffffffffffffffffffffffffff166fffffffffffffffffffffffffffffffff166fffffffffffffffffffffffffffffffff168152505090506000826002016040518060400160405290816000820160009054906101000a90046fffffffffffffffffffffffffffffffff166fffffffffffffffffffffffffffffffff166fffffffffffffffffffffffffffffffff1681526020016000820160109054906101000a90046fffffffffffffffffffffffffffffffff166fffffffffffffffffffffffffffffffff166fffffffffffffffffffffffffffffffff168152505090506000816000015160018360200151610bf49190614fa8565b610bfe9190614fec565b6fffffffffffffffffffffffffffffffff1690508067ffffffffffffffff811115610c2c57610c2b614643565b5b604051908082528060200260200182016040528015610c6557816020015b610c5261446a565b815260200190600190039081610c4a5790505b50945060005b81811015610eda5760008560010160008386600001516fffffffffffffffffffffffffffffffff16610c9d9190614f74565b81526020019081526020016000206040518060400160405290816000820160009054906101000a900473ffffffffffffffffffffffffffffffffffffffff1673ffffffffffffffffffffffffffffffffffffffff1673ffffffffffffffffffffffffffffffffffffffff16815260200160018201548152505090508060000151878381518110610d3057610d2f615030565b5b60200260200101516000019073ffffffffffffffffffffffffffffffffffffffff16908173ffffffffffffffffffffffffffffffffffffffff16815250508060200151878381518110610d8657610d85615030565b5b602002602001015160200181815250508460000151878381518110610dae57610dad615030565b5b60200260200101516040019073ffffffffffffffffffffffffffffffffffffffff16908173ffffffffffffffffffffffffffffffffffffffff16815250508460200151878381518110610e0457610e03615030565b5b60200260200101516060019073ffffffffffffffffffffffffffffffffffffffff16908173ffffffffffffffffffffffffffffffffffffffff16815250508460400151878381518110610e5a57610e59615030565b5b60200260200101516080019067ffffffffffffffff16908167ffffffffffffffff16815250508460600151878381518110610e9857610e97615030565b5b602002602001015160a001906fffffffffffffffffffffffffffffffff1690816fffffffffffffffffffffffffffffffff168152505050806001019050610c6b565b5050505050919050565b806003600084815260200190815260200160002060008201518160000160006101000a81548167ffffffffffffffff021916908367ffffffffffffffff16021790555060208201518160000160086101000a81548173ffffffffffffffffffffffffffffffffffffffff021916908373ffffffffffffffffffffffffffffffffffffffff1602179055509050505050565b60046020528060005260406000206000915054906101000a900460ff1681565b60056020528060005260406000206000915054906101000a900460ff1681565b610fbf8282612ca8565b5050565b610fcd8582612ca8565b60008060003373ffffffffffffffffffffffffffffffffffffffff1673ffffffffffffffffffffffffffffffffffffffff16815260200190815260200160002060008773ffffffffffffffffffffffffffffffffffffffff1673ffffffffffffffffffffffffffffffffffffffff1681526020019081526020016000206040518060400160405290816000820160009054906101000a90046fffffffffffffffffffffffffffffffff166fffffffffffffffffffffffffffffffff166fffffffffffffffffffffffffffffffff1681526020016000820160109054906101000a90046fffffffffffffffffffffffffffffffff166fffffffffffffffffffffffffffffffff166fffffffffffffffffffffffffffffffff168152505090508181602001516fffffffffffffffffffffffffffffffff16101561113b576040517fa14bb0e400000000000000000000000000000000000000000000000000000000815260040160405180910390fd5b600061114987878787611f8b565b90506005600082815260200190815260200160002060009054906101000a900460ff166111a2576040517f2083cd4000000000000000000000000000000000000000000000000000000000815260040160405180910390fd5b60405180604001604052808484600001516fffffffffffffffffffffffffffffffff166111cf9190614f74565b6fffffffffffffffffffffffffffffffff1681526020018484602001516fffffffffffffffffffffffffffffffff166112089190614f40565b6fffffffffffffffffffffffffffffffff168152506000803373ffffffffffffffffffffffffffffffffffffffff1673ffffffffffffffffffffffffffffffffffffffff16815260200190815260200160002060008973ffffffffffffffffffffffffffffffffffffffff1673ffffffffffffffffffffffffffffffffffffffff16815260200190815260200160002060008201518160000160006101000a8154816fffffffffffffffffffffffffffffffff02191690836fffffffffffffffffffffffffffffffff16021790555060208201518160000160106101000a8154816fffffffffffffffffffffffffffffffff02191690836fffffffffffffffffffffffffffffffff160217905550905050600061136587897f000000000000000000000000000000000000000000000000000000000000000088670de0b6b3a764000080611356919061505f565b61136091906150d0565b611f8b565b9050600085670de0b6b3a76400008661137e919061505f565b61138891906150d0565b905060006113c46001600086815260200190815260200160002060030160010160149054906101000a900467ffffffffffffffff168484612e92565b905082817f34187dcaf98362bbf4144e7af22b95240c7e7fd2fcc23c78b5062e907e7188b888856040516113f9929190615101565b60405180910390a350505050505050505050565b6114178582612ca8565b600061142586868686611f8b565b90506005600082815260200190815260200160002060009054906101000a900460ff1661147e576040517f2083cd4000000000000000000000000000000000000000000000000000000000815260040160405180910390fd5b60008060003373ffffffffffffffffffffffffffffffffffffffff1673ffffffffffffffffffffffffffffffffffffffff16815260200190815260200160002060008873ffffffffffffffffffffffffffffffffffffffff1673ffffffffffffffffffffffffffffffffffffffff1681526020019081526020016000206040518060400160405290816000820160009054906101000a90046fffffffffffffffffffffffffffffffff166fffffffffffffffffffffffffffffffff166fffffffffffffffffffffffffffffffff1681526020016000820160109054906101000a90046fffffffffffffffffffffffffffffffff166fffffffffffffffffffffffffffffffff166fffffffffffffffffffffffffffffffff168152505090508281602001516fffffffffffffffffffffffffffffffff1610156115ec576040517fa14bb0e400000000000000000000000000000000000000000000000000000000815260040160405180910390fd5b60405180604001604052808483600001516fffffffffffffffffffffffffffffffff166116199190614f74565b6fffffffffffffffffffffffffffffffff1681526020018483602001516fffffffffffffffffffffffffffffffff166116529190614f40565b6fffffffffffffffffffffffffffffffff168152506000803373ffffffffffffffffffffffffffffffffffffffff1673ffffffffffffffffffffffffffffffffffffffff16815260200190815260200160002060008973ffffffffffffffffffffffffffffffffffffffff1673ffffffffffffffffffffffffffffffffffffffff16815260200190815260200160002060008201518160000160006101000a8154816fffffffffffffffffffffffffffffffff02191690836fffffffffffffffffffffffffffffffff16021790555060208201518160000160106101000a8154816fffffffffffffffffffffffffffffffff02191690836fffffffffffffffffffffffffffffffff16021790555090505060006001600084815260200190815260200160002090508381600001600082825461178e9190614f74565b92505081905550600060018260020160000160109054906101000a90046fffffffffffffffffffffffffffffffff166117c79190614fa8565b905060405180604001604052803373ffffffffffffffffffffffffffffffffffffffff16815260200186815250826001016000836fffffffffffffffffffffffffffffffff16815260200190815260200160002060008201518160000160006101000a81548173ffffffffffffffffffffffffffffffffffffffff021916908373ffffffffffffffffffffffffffffffffffffffff16021790555060208201518160010155905050808260020160000160106101000a8154816fffffffffffffffffffffffffffffffff02191690836fffffffffffffffffffffffffffffffff1602179055507f66001c45494a559c7edade4a194d11da08f6b4a90ee4571b38ef9f16e4d082848483600001546040516118e292919061512a565b60405180910390a1505050505050505050565b606060005b600280549050811015611e64576000600160006002848154811061192157611920615030565b5b9060005260206000200154815260200190815260200160002090506000816003016040518060800160405290816000820160009054906101000a900473ffffffffffffffffffffffffffffffffffffffff1673ffffffffffffffffffffffffffffffffffffffff1673ffffffffffffffffffffffffffffffffffffffff1681526020016001820160009054906101000a900473ffffffffffffffffffffffffffffffffffffffff1673ffffffffffffffffffffffffffffffffffffffff1673ffffffffffffffffffffffffffffffffffffffff1681526020016001820160149054906101000a900467ffffffffffffffff1667ffffffffffffffff1667ffffffffffffffff1681526020016002820160009054906101000a90046fffffffffffffffffffffffffffffffff166fffffffffffffffffffffffffffffffff166fffffffffffffffffffffffffffffffff168152505090506000826002016040518060400160405290816000820160009054906101000a90046fffffffffffffffffffffffffffffffff166fffffffffffffffffffffffffffffffff166fffffffffffffffffffffffffffffffff1681526020016000820160109054906101000a90046fffffffffffffffffffffffffffffffff166fffffffffffffffffffffffffffffffff166fffffffffffffffffffffffffffffffff168152505090506000816000015160018360200151611b369190614fa8565b611b409190614fec565b6fffffffffffffffffffffffffffffffff1690508067ffffffffffffffff811115611b6e57611b6d614643565b5b604051908082528060200260200182016040528015611ba757816020015b611b9461446a565b815260200190600190039081611b8c5790505b50955060005b81811015611e545760008560010160008386600001516fffffffffffffffffffffffffffffffff16611bdf9190614f74565b81526020019081526020016000206040518060400160405290816000820160009054906101000a900473ffffffffffffffffffffffffffffffffffffffff1673ffffffffffffffffffffffffffffffffffffffff1673ffffffffffffffffffffffffffffffffffffffff16815260200160018201548152505090508873ffffffffffffffffffffffffffffffffffffffff16816000015173ffffffffffffffffffffffffffffffffffffffff1603611e48578060000151888381518110611ca957611ca8615030565b5b60200260200101516000019073ffffffffffffffffffffffffffffffffffffffff16908173ffffffffffffffffffffffffffffffffffffffff16815250508060200151888381518110611cff57611cfe615030565b5b602002602001015160200181815250508460000151888381518110611d2757611d26615030565b5b60200260200101516040019073ffffffffffffffffffffffffffffffffffffffff16908173ffffffffffffffffffffffffffffffffffffffff16815250508460200151888381518110611d7d57611d7c615030565b5b60200260200101516060019073ffffffffffffffffffffffffffffffffffffffff16908173ffffffffffffffffffffffffffffffffffffffff16815250508460400151888381518110611dd357611dd2615030565b5b60200260200101516080019067ffffffffffffffff16908167ffffffffffffffff16815250508460600151888381518110611e1157611e10615030565b5b602002602001015160a001906fffffffffffffffffffffffffffffffff1690816fffffffffffffffffffffffffffffffff16815250505b50806001019050611bad565b50505050508060010190506118fa565b50919050565b7f000000000000000000000000000000000000000000000000000000000000000081565b7f000000000000000000000000000000000000000000000000000000000000000073ffffffffffffffffffffffffffffffffffffffff163373ffffffffffffffffffffffffffffffffffffffff1614611f1e57336040517fd7f73334000000000000000000000000000000000000000000000000000000008152600401611f159190614c60565b60405180910390fd5b611f3081611f2b90615405565b61330e565b50565b60036020528060005260406000206000915090508060000160009054906101000a900467ffffffffffffffff16908060000160089054906101000a900473ffffffffffffffffffffffffffffffffffffffff16905082565b600084848484604051602001611fa49493929190615418565b604051602081830303815290604052805190602001209050949350505050565b606060005b6002805490508110156124fb5760006001600060028481548110611ff057611fef615030565b5b9060005260206000200154815260200190815260200160002090506000816003016040518060800160405290816000820160009054906101000a900473ffffffffffffffffffffffffffffffffffffffff1673ffffffffffffffffffffffffffffffffffffffff1673ffffffffffffffffffffffffffffffffffffffff1681526020016001820160009054906101000a900473ffffffffffffffffffffffffffffffffffffffff1673ffffffffffffffffffffffffffffffffffffffff1673ffffffffffffffffffffffffffffffffffffffff1681526020016001820160149054906101000a900467ffffffffffffffff1667ffffffffffffffff1667ffffffffffffffff1681526020016002820160009054906101000a90046fffffffffffffffffffffffffffffffff166fffffffffffffffffffffffffffffffff166fffffffffffffffffffffffffffffffff168152505090506000826002016040518060400160405290816000820160009054906101000a90046fffffffffffffffffffffffffffffffff166fffffffffffffffffffffffffffffffff166fffffffffffffffffffffffffffffffff1681526020016000820160109054906101000a90046fffffffffffffffffffffffffffffffff166fffffffffffffffffffffffffffffffff166fffffffffffffffffffffffffffffffff1681525050905060008160000151600183602001516122059190614fa8565b61220f9190614fec565b6fffffffffffffffffffffffffffffffff1690508067ffffffffffffffff81111561223d5761223c614643565b5b60405190808252806020026020018201604052801561227657816020015b61226361446a565b81526020019060019003908161225b5790505b50955060005b818110156124eb5760008560010160008386600001516fffffffffffffffffffffffffffffffff166122ae9190614f74565b81526020019081526020016000206040518060400160405290816000820160009054906101000a900473ffffffffffffffffffffffffffffffffffffffff1673ffffffffffffffffffffffffffffffffffffffff1673ffffffffffffffffffffffffffffffffffffffff1681526020016001820154815250509050806000015188838151811061234157612340615030565b5b60200260200101516000019073ffffffffffffffffffffffffffffffffffffffff16908173ffffffffffffffffffffffffffffffffffffffff1681525050806020015188838151811061239757612396615030565b5b6020026020010151602001818152505084600001518883815181106123bf576123be615030565b5b60200260200101516040019073ffffffffffffffffffffffffffffffffffffffff16908173ffffffffffffffffffffffffffffffffffffffff1681525050846020015188838151811061241557612414615030565b5b60200260200101516060019073ffffffffffffffffffffffffffffffffffffffff16908173ffffffffffffffffffffffffffffffffffffffff1681525050846040015188838151811061246b5761246a615030565b5b60200260200101516080019067ffffffffffffffff16908167ffffffffffffffff168152505084606001518883815181106124a9576124a8615030565b5b602002602001015160a001906fffffffffffffffffffffffffffffffff1690816fffffffffffffffffffffffffffffffff16815250505080600101905061227c565b5050505050806001019050611fc9565b5090565b6000602052816000526040600020602052806000526040600020600091509150508060000160009054906101000a90046fffffffffffffffffffffffffffffffff16908060000160109054906101000a90046fffffffffffffffffffffffffffffffff16905082565b60007f0000000000000000000000000000000000000000000000000000000000000000905090565b6001602052806000526040600020600091509050806000015490806002016040518060400160405290816000820160009054906101000a90046fffffffffffffffffffffffffffffffff166fffffffffffffffffffffffffffffffff166fffffffffffffffffffffffffffffffff1681526020016000820160109054906101000a90046fffffffffffffffffffffffffffffffff166fffffffffffffffffffffffffffffffff166fffffffffffffffffffffffffffffffff168152505090806003016040518060800160405290816000820160009054906101000a900473ffffffffffffffffffffffffffffffffffffffff1673ffffffffffffffffffffffffffffffffffffffff1673ffffffffffffffffffffffffffffffffffffffff1681526020016001820160009054906101000a900473ffffffffffffffffffffffffffffffffffffffff1673ffffffffffffffffffffffffffffffffffffffff1673ffffffffffffffffffffffffffffffffffffffff1681526020016001820160149054906101000a900467ffffffffffffffff1667ffffffffffffffff1667ffffffffffffffff1681526020016002820160009054906101000a90046fffffffffffffffffffffffffffffffff166fffffffffffffffffffffffffffffffff166fffffffffffffffffffffffffffffffff1681525050905083565b600460008373ffffffffffffffffffffffffffffffffffffffff1673ffffffffffffffffffffffffffffffffffffffff16815260200190815260200160002060009054906101000a900460ff1661280d576040517fc1ab6dc100000000000000000000000000000000000000000000000000000000815260040160405180910390fd5b600081148061282e57506fffffffffffffffffffffffffffffffff80168110155b15612865576040517f2c5211c600000000000000000000000000000000000000000000000000000000815260040160405180910390fd5b6000803373ffffffffffffffffffffffffffffffffffffffff1673ffffffffffffffffffffffffffffffffffffffff16815260200190815260200160002060008373ffffffffffffffffffffffffffffffffffffffff1673ffffffffffffffffffffffffffffffffffffffff16815260200190815260200160002060000160109054906101000a90046fffffffffffffffffffffffffffffffff166fffffffffffffffffffffffffffffffff1681111561294b576040517fa14bb0e400000000000000000000000000000000000000000000000000000000815260040160405180910390fd5b806000803373ffffffffffffffffffffffffffffffffffffffff1673ffffffffffffffffffffffffffffffffffffffff16815260200190815260200160002060008473ffffffffffffffffffffffffffffffffffffffff1673ffffffffffffffffffffffffffffffffffffffff16815260200190815260200160002060000160108282829054906101000a90046fffffffffffffffffffffffffffffffff166129f49190614fec565b92506101000a8154816fffffffffffffffffffffffffffffffff02191690836fffffffffffffffffffffffffffffffff160217905550612a573330838573ffffffffffffffffffffffffffffffffffffffff16613438909392919063ffffffff16565b5050565b600160046000836000015173ffffffffffffffffffffffffffffffffffffffff1673ffffffffffffffffffffffffffffffffffffffff16815260200190815260200160002060006101000a81548160ff0219169083151502179055506000612ae782600001518360200151846040015185606001516fffffffffffffffffffffffffffffffff16611f8b565b905060016005600083815260200190815260200160002060006101000a81548160ff021916908315150217905550600180600083815260200190815260200160002060020160000160006101000a8154816fffffffffffffffffffffffffffffffff02191690836fffffffffffffffffffffffffffffffff160217905550816001600083815260200190815260200160002060030160008201518160000160006101000a81548173ffffffffffffffffffffffffffffffffffffffff021916908373ffffffffffffffffffffffffffffffffffffffff16021790555060208201518160010160006101000a81548173ffffffffffffffffffffffffffffffffffffffff021916908373ffffffffffffffffffffffffffffffffffffffff16021790555060408201518160010160146101000a81548167ffffffffffffffff021916908367ffffffffffffffff16021790555060608201518160020160006101000a8154816fffffffffffffffffffffffffffffffff02191690836fffffffffffffffffffffffffffffffff16021790555090505060028190806001815401808255809150506001900390600052602060002001600090919091909150555050565b600460008373ffffffffffffffffffffffffffffffffffffffff1673ffffffffffffffffffffffffffffffffffffffff16815260200190815260200160002060009054906101000a900460ff16612d2b576040517fc1ab6dc100000000000000000000000000000000000000000000000000000000815260040160405180910390fd5b6000811480612d4b57506fffffffffffffffffffffffffffffffff801681115b15612d82576040517f2c5211c600000000000000000000000000000000000000000000000000000000815260040160405180910390fd5b612daf3330838573ffffffffffffffffffffffffffffffffffffffff16613438909392919063ffffffff16565b806000803373ffffffffffffffffffffffffffffffffffffffff1673ffffffffffffffffffffffffffffffffffffffff16815260200190815260200160002060008473ffffffffffffffffffffffffffffffffffffffff1673ffffffffffffffffffffffffffffffffffffffff16815260200190815260200160002060000160108282829054906101000a90046fffffffffffffffffffffffffffffffff16612e589190614fa8565b92506101000a8154816fffffffffffffffffffffffffffffffff02191690836fffffffffffffffffffffffffffffffff1602179055505050565b6000808383604051602401612ea892919061512a565b6040516020818303038152906040527fc3a5273a000000000000000000000000000000000000000000000000000000007bffffffffffffffffffffffffffffffffffffffffffffffffffffffff19166020820180517bffffffffffffffffffffffffffffffffffffffffffffffffffffffff838183161783525050505090506000600360008767ffffffffffffffff1681526020019081526020016000206040518060400160405290816000820160009054906101000a900467ffffffffffffffff1667ffffffffffffffff1667ffffffffffffffff1681526020016000820160089054906101000a900473ffffffffffffffffffffffffffffffffffffffff1673ffffffffffffffffffffffffffffffffffffffff1673ffffffffffffffffffffffffffffffffffffffff1681525050905060006040518060a001604052808360200151604051602001612ffd9190614c60565b6040516020818303038152906040528152602001848152602001600067ffffffffffffffff81111561303257613031614643565b5b60405190808252806020026020018201604052801561306b57816020015b6130586144fe565b8152602001906001900390816130505790505b5081526020017f000000000000000000000000000000000000000000000000000000000000000073ffffffffffffffffffffffffffffffffffffffff1681526020016130d06040518060400160405280620f42408152602001600015158152506134ba565b815250905060007f000000000000000000000000000000000000000000000000000000000000000073ffffffffffffffffffffffffffffffffffffffff166320487ded8460000151846040518363ffffffff1660e01b8152600401613136929190615645565b602060405180830381865afa158015613153573d6000803e3d6000fd5b505050506040513d601f19601f82011682018060405250810190613177919061568a565b905060007f000000000000000000000000000000000000000000000000000000000000000073ffffffffffffffffffffffffffffffffffffffff166370a08231306040518263ffffffff1660e01b81526004016131d49190614c60565b602060405180830381865afa1580156131f1573d6000803e3d6000fd5b505050506040513d601f19601f82011682018060405250810190613215919061568a565b90508082111561325e5780826040517f449a2987000000000000000000000000000000000000000000000000000000008152600401613255929190615101565b60405180910390fd5b7f000000000000000000000000000000000000000000000000000000000000000073ffffffffffffffffffffffffffffffffffffffff166396f4e9f98560000151856040518363ffffffff1660e01b81526004016132bd929190615645565b6020604051808303816000875af11580156132dc573d6000803e3d6000fd5b505050506040513d601f19601f8201168201806040525081019061330091906156cc565b955050505050509392505050565b6000816060015161331e9061572b565b9050600073__$77495b9255afde2b07dd9728acc0dac662$__6397e1017f84606001516040518263ffffffff1660e01b815260040161335d91906157dc565b600060405180830381865af415801561337a573d6000803e3d6000fd5b505050506040513d6000823e3d601f19601f820116820180604052508101906133a3919061586e565b90507fe2f0818238e5ef367dbf294d869a854d6c9725e7e275fe53ff413a8a919115c482826040516133d6929190615910565b60405180910390a163c3a5273a60e01b827bffffffffffffffffffffffffffffffffffffffffffffffffffffffff19160361343357600080828060200190518101906134229190615940565b915091506134308282613539565b50505b505050565b6134b4848573ffffffffffffffffffffffffffffffffffffffff166323b872dd86868660405160240161346d93929190615980565b604051602081830303815290604052915060e01b6020820180517bffffffffffffffffffffffffffffffffffffffffffffffffffffffff8381831617835250505050613bdc565b50505050565b60606397a657c960e01b826040516024016134d591906159f5565b604051602081830303815290604052907bffffffffffffffffffffffffffffffffffffffffffffffffffffffff19166020820180517bffffffffffffffffffffffffffffffffffffffffffffffffffffffff83818316178352505050509050919050565b6005600083815260200190815260200160002060009054906101000a900460ff16613590576040517f2083cd4000000000000000000000000000000000000000000000000000000000815260040160405180910390fd5b600060016000848152602001908152602001600020905081816000015410156135e5576040517fea6c9b8400000000000000000000000000000000000000000000000000000000815260040160405180910390fd5b818160000160008282546135f99190614f40565b925050819055506000816002016040518060400160405290816000820160009054906101000a90046fffffffffffffffffffffffffffffffff166fffffffffffffffffffffffffffffffff166fffffffffffffffffffffffffffffffff1681526020016000820160109054906101000a90046fffffffffffffffffffffffffffffffff166fffffffffffffffffffffffffffffffff166fffffffffffffffffffffffffffffffff1681525050905060008160000151600183602001516136bf9190614fa8565b6136c99190614fec565b6fffffffffffffffffffffffffffffffff16905060008167ffffffffffffffff8111156136f9576136f8614643565b5b60405190808252806020026020018201604052801561373257816020015b61371f61452e565b8152602001906001900390816137175790505b50905060008086905060005b8481101561393a57600087600101600088600001516fffffffffffffffffffffffffffffffff1681526020019081526020016000206040518060400160405290816000820160009054906101000a900473ffffffffffffffffffffffffffffffffffffffff1673ffffffffffffffffffffffffffffffffffffffff1673ffffffffffffffffffffffffffffffffffffffff16815260200160018201548152505090508060200151831061388b5787600201600001600081819054906101000a90046fffffffffffffffffffffffffffffffff168092919061381e90615a10565b91906101000a8154816fffffffffffffffffffffffffffffffff02191690836fffffffffffffffffffffffffffffffff160217905550508060200151836138659190614f40565b92508085838151811061387b5761387a615030565b5b6020026020010181905250613920565b82816020015161389b9190614f40565b88600101600089600001516fffffffffffffffffffffffffffffffff168152602001908152602001600020600101819055506040518060400160405280826000015173ffffffffffffffffffffffffffffffffffffffff1681526020018481525085838151811061390f5761390e615030565b5b60200260200101819052505061393a565b838061392b90615a48565b9450505080600101905061373e565b5060008467ffffffffffffffff81111561395757613956614643565b5b60405190808252806020026020018201604052801561399057816020015b61397d61452e565b8152602001906001900390816139755790505b50905060005b838110156139e2578481815181106139b1576139b0615030565b5b60200260200101518282815181106139cc576139cb615030565b5b6020026020010181905250806001019050613996565b506000876003016040518060800160405290816000820160009054906101000a900473ffffffffffffffffffffffffffffffffffffffff1673ffffffffffffffffffffffffffffffffffffffff1673ffffffffffffffffffffffffffffffffffffffff1681526020016001820160009054906101000a900473ffffffffffffffffffffffffffffffffffffffff1673ffffffffffffffffffffffffffffffffffffffff1673ffffffffffffffffffffffffffffffffffffffff1681526020016001820160149054906101000a900467ffffffffffffffff1667ffffffffffffffff1667ffffffffffffffff1681526020016002820160009054906101000a90046fffffffffffffffffffffffffffffffff166fffffffffffffffffffffffffffffffff166fffffffffffffffffffffffffffffffff168152505090506000613b88826020015183600001517f000000000000000000000000000000000000000000000000000000000000000085606001516fffffffffffffffffffffffffffffffff16670de0b6b3a764000080613b79919061505f565b613b8391906150d0565b611f8b565b9050600082606001516fffffffffffffffffffffffffffffffff16670de0b6b3a76400008c613bb7919061505f565b613bc191906150d0565b9050613bce828286613c73565b505050505050505050505050565b6000613c07828473ffffffffffffffffffffffffffffffffffffffff166142b390919063ffffffff16565b90506000815114158015613c2c575080806020019051810190613c2a9190615abc565b155b15613c6e57826040517f5274afe7000000000000000000000000000000000000000000000000000000008152600401613c659190614c60565b60405180910390fd5b505050565b6000838383604051602401613c8a93929190615bc7565b6040516020818303038152906040527f0db2314b000000000000000000000000000000000000000000000000000000007bffffffffffffffffffffffffffffffffffffffffffffffffffffffff19166020820180517bffffffffffffffffffffffffffffffffffffffffffffffffffffffff838183161783525050505090507f760808593e092601b5067a4802e87b2033a1278181ac00e740c5ae38030a8ddb81604051613d389190615c05565b60405180910390a16000600160008681526020019081526020016000206003016040518060800160405290816000820160009054906101000a900473ffffffffffffffffffffffffffffffffffffffff1673ffffffffffffffffffffffffffffffffffffffff1673ffffffffffffffffffffffffffffffffffffffff1681526020016001820160009054906101000a900473ffffffffffffffffffffffffffffffffffffffff1673ffffffffffffffffffffffffffffffffffffffff1673ffffffffffffffffffffffffffffffffffffffff1681526020016001820160149054906101000a900467ffffffffffffffff1667ffffffffffffffff1667ffffffffffffffff1681526020016002820160009054906101000a90046fffffffffffffffffffffffffffffffff166fffffffffffffffffffffffffffffffff166fffffffffffffffffffffffffffffffff16815250509050600060036000836040015167ffffffffffffffff1681526020019081526020016000206040518060400160405290816000820160009054906101000a900467ffffffffffffffff1667ffffffffffffffff1667ffffffffffffffff1681526020016000820160089054906101000a900473ffffffffffffffffffffffffffffffffffffffff1673ffffffffffffffffffffffffffffffffffffffff1673ffffffffffffffffffffffffffffffffffffffff1681525050905060006040518060a001604052808360200151604051602001613f679190614c60565b6040516020818303038152906040528152602001858152602001600067ffffffffffffffff811115613f9c57613f9b614643565b5b604051908082528060200260200182016040528015613fd557816020015b613fc26144fe565b815260200190600190039081613fba5790505b5081526020017f000000000000000000000000000000000000000000000000000000000000000073ffffffffffffffffffffffffffffffffffffffff16815260200161403a6040518060400160405280620f42408152602001600015158152506134ba565b815250905060007f000000000000000000000000000000000000000000000000000000000000000073ffffffffffffffffffffffffffffffffffffffff166320487ded8460000151846040518363ffffffff1660e01b81526004016140a0929190615645565b602060405180830381865afa1580156140bd573d6000803e3d6000fd5b505050506040513d601f19601f820116820180604052508101906140e1919061568a565b905060007f000000000000000000000000000000000000000000000000000000000000000073ffffffffffffffffffffffffffffffffffffffff166370a08231306040518263ffffffff1660e01b815260040161413e9190614c60565b602060405180830381865afa15801561415b573d6000803e3d6000fd5b505050506040513d601f19601f8201168201806040525081019061417f919061568a565b9050808211156141c85780826040517f449a29870000000000000000000000000000000000000000000000000000000081526004016141bf929190615101565b60405180910390fd5b60007f000000000000000000000000000000000000000000000000000000000000000073ffffffffffffffffffffffffffffffffffffffff166396f4e9f98660000151866040518363ffffffff1660e01b8152600401614229929190615645565b6020604051808303816000875af1158015614248573d6000803e3d6000fd5b505050506040513d601f19601f8201168201806040525081019061426c91906156cc565b905089817f29b34b12cb22fe8c8709088e7ebb51f3897f10f3aa3a813728f065bcfa1839c08a60405161429f9190615c27565b60405180910390a350505050505050505050565b60606142c1838360006142c9565b905092915050565b60608147101561431057306040517fcd7860590000000000000000000000000000000000000000000000000000000081526004016143079190614c60565b60405180910390fd5b6000808573ffffffffffffffffffffffffffffffffffffffff1684866040516143399190615c85565b60006040518083038185875af1925050503d8060008114614376576040519150601f19603f3d011682016040523d82523d6000602084013e61437b565b606091505b509150915061438b868383614396565b925050509392505050565b6060826143ab576143a682614425565b61441d565b600082511480156143d3575060008473ffffffffffffffffffffffffffffffffffffffff163b145b1561441557836040517f9996b31500000000000000000000000000000000000000000000000000000000815260040161440c9190614c60565b60405180910390fd5b81905061441e565b5b9392505050565b6000815111156144385780518082602001fd5b6040517f1425ea4200000000000000000000000000000000000000000000000000000000815260040160405180910390fd5b6040518060c00160405280600073ffffffffffffffffffffffffffffffffffffffff16815260200160008152602001600073ffffffffffffffffffffffffffffffffffffffff168152602001600073ffffffffffffffffffffffffffffffffffffffff168152602001600067ffffffffffffffff16815260200160006fffffffffffffffffffffffffffffffff1681525090565b6040518060400160405280600073ffffffffffffffffffffffffffffffffffffffff168152602001600081525090565b6040518060400160405280600073ffffffffffffffffffffffffffffffffffffffff168152602001600081525090565b6000604051905090565b600080fd5b600080fd5b60007fffffffff0000000000000000000000000000000000000000000000000000000082169050919050565b6145a781614572565b81146145b257600080fd5b50565b6000813590506145c48161459e565b92915050565b6000602082840312156145e0576145df614568565b5b60006145ee848285016145b5565b91505092915050565b60008115159050919050565b61460c816145f7565b82525050565b60006020820190506146276000830184614603565b92915050565b600080fd5b6000601f19601f8301169050919050565b7f4e487b7100000000000000000000000000000000000000000000000000000000600052604160045260246000fd5b61467b82614632565b810181811067ffffffffffffffff8211171561469a57614699614643565b5b80604052505050565b60006146ad61455e565b90506146b98282614672565b919050565b600080fd5b600073ffffffffffffffffffffffffffffffffffffffff82169050919050565b60006146ee826146c3565b9050919050565b6146fe816146e3565b811461470957600080fd5b50565b60008135905061471b816146f5565b92915050565b600067ffffffffffffffff82169050919050565b61473e81614721565b811461474957600080fd5b50565b60008135905061475b81614735565b92915050565b60006fffffffffffffffffffffffffffffffff82169050919050565b61478681614761565b811461479157600080fd5b50565b6000813590506147a38161477d565b92915050565b6000608082840312156147bf576147be61462d565b5b6147c960806146a3565b905060006147d98482850161470c565b60008301525060206147ed8482850161470c565b60208301525060406148018482850161474c565b604083015250606061481584828501614794565b60608301525092915050565b60006080828403121561483757614836614568565b5b6000614845848285016147a9565b91505092915050565b6000819050919050565b6148618161484e565b811461486c57600080fd5b50565b60008135905061487e81614858565b92915050565b6000819050919050565b61489781614884565b81146148a257600080fd5b50565b6000813590506148b48161488e565b92915050565b600080604083850312156148d1576148d0614568565b5b60006148df8582860161486f565b92505060206148f0858286016148a5565b9150509250929050565b61490381614721565b82525050565b600060208201905061491e60008301846148fa565b92915050565b60006020828403121561493a57614939614568565b5b60006149488482850161486f565b91505092915050565b600081519050919050565b600082825260208201905092915050565b6000819050602082019050919050565b614986816146e3565b82525050565b61499581614884565b82525050565b6149a481614721565b82525050565b6149b381614761565b82525050565b60c0820160008201516149cf600085018261497d565b5060208201516149e2602085018261498c565b5060408201516149f5604085018261497d565b506060820151614a08606085018261497d565b506080820151614a1b608085018261499b565b5060a0820151614a2e60a08501826149aa565b50505050565b6000614a4083836149b9565b60c08301905092915050565b6000602082019050919050565b6000614a6482614951565b614a6e818561495c565b9350614a798361496d565b8060005b83811015614aaa578151614a918882614a34565b9750614a9c83614a4c565b925050600181019050614a7d565b5085935050505092915050565b60006020820190508181036000830152614ad18184614a59565b905092915050565b600060408284031215614aef57614aee61462d565b5b614af960406146a3565b90506000614b098482850161474c565b6000830152506020614b1d8482850161470c565b60208301525092915050565b60008060608385031215614b4057614b3f614568565b5b6000614b4e858286016148a5565b9250506020614b5f85828601614ad9565b9150509250929050565b600060208284031215614b7f57614b7e614568565b5b6000614b8d8482850161470c565b91505092915050565b60008060408385031215614bad57614bac614568565b5b6000614bbb8582860161470c565b9250506020614bcc858286016148a5565b9150509250929050565b600080600080600060a08688031215614bf257614bf1614568565b5b6000614c008882890161470c565b9550506020614c118882890161470c565b9450506040614c228882890161474c565b9350506060614c33888289016148a5565b9250506080614c44888289016148a5565b9150509295509295909350565b614c5a816146e3565b82525050565b6000602082019050614c756000830184614c51565b92915050565b600080fd5b600060a08284031215614c9657614c95614c7b565b5b81905092915050565b600060208284031215614cb557614cb4614568565b5b600082013567ffffffffffffffff811115614cd357614cd261456d565b5b614cdf84828501614c80565b91505092915050565b600060208284031215614cfe57614cfd614568565b5b6000614d0c848285016148a5565b91505092915050565b6000604082019050614d2a60008301856148fa565b614d376020830184614c51565b9392505050565b60008060008060808587031215614d5857614d57614568565b5b6000614d668782880161470c565b9450506020614d778782880161470c565b9350506040614d888782880161474c565b9250506060614d99878288016148a5565b91505092959194509250565b614dae8161484e565b82525050565b6000602082019050614dc96000830184614da5565b92915050565b60008060408385031215614de657614de5614568565b5b6000614df48582860161470c565b9250506020614e058582860161470c565b9150509250929050565b614e1881614761565b82525050565b6000604082019050614e336000830185614e0f565b614e406020830184614e0f565b9392505050565b614e5081614884565b82525050565b604082016000820151614e6c60008501826149aa565b506020820151614e7f60208501826149aa565b50505050565b608082016000820151614e9b600085018261497d565b506020820151614eae602085018261497d565b506040820151614ec1604085018261499b565b506060820151614ed460608501826149aa565b50505050565b600060e082019050614eef6000830186614e47565b614efc6020830185614e56565b614f096060830184614e85565b949350505050565b7f4e487b7100000000000000000000000000000000000000000000000000000000600052601160045260246000fd5b6000614f4b82614884565b9150614f5683614884565b9250828203905081811115614f6e57614f6d614f11565b5b92915050565b6000614f7f82614884565b9150614f8a83614884565b9250828201905080821115614fa257614fa1614f11565b5b92915050565b6000614fb382614761565b9150614fbe83614761565b925082820190506fffffffffffffffffffffffffffffffff811115614fe657614fe5614f11565b5b92915050565b6000614ff782614761565b915061500283614761565b925082820390506fffffffffffffffffffffffffffffffff81111561502a57615029614f11565b5b92915050565b7f4e487b7100000000000000000000000000000000000000000000000000000000600052603260045260246000fd5b600061506a82614884565b915061507583614884565b925082820261508381614884565b9150828204841483151761509a57615099614f11565b5b5092915050565b7f4e487b7100000000000000000000000000000000000000000000000000000000600052601260045260246000fd5b60006150db82614884565b91506150e683614884565b9250826150f6576150f56150a1565b5b828204905092915050565b60006040820190506151166000830185614e47565b6151236020830184614e47565b9392505050565b600060408201905061513f6000830185614da5565b61514c6020830184614e47565b9392505050565b600080fd5b600080fd5b600067ffffffffffffffff82111561517857615177614643565b5b61518182614632565b9050602081019050919050565b82818337600083830152505050565b60006151b06151ab8461515d565b6146a3565b9050828152602081018484840111156151cc576151cb615158565b5b6151d784828561518e565b509392505050565b600082601f8301126151f4576151f3615153565b5b813561520484826020860161519d565b91505092915050565b600067ffffffffffffffff82111561522857615227614643565b5b602082029050602081019050919050565b600080fd5b6000604082840312156152545761525361462d565b5b61525e60406146a3565b9050600061526e8482850161470c565b6000830152506020615282848285016148a5565b60208301525092915050565b60006152a161529c8461520d565b6146a3565b905080838252602082019050604084028301858111156152c4576152c3615239565b5b835b818110156152ed57806152d9888261523e565b8452602084019350506040810190506152c6565b5050509392505050565b600082601f83011261530c5761530b615153565b5b813561531c84826020860161528e565b91505092915050565b600060a0828403121561533b5761533a61462d565b5b61534560a06146a3565b905060006153558482850161486f565b60008301525060206153698482850161474c565b602083015250604082013567ffffffffffffffff81111561538d5761538c6146be565b5b615399848285016151df565b604083015250606082013567ffffffffffffffff8111156153bd576153bc6146be565b5b6153c9848285016151df565b606083015250608082013567ffffffffffffffff8111156153ed576153ec6146be565b5b6153f9848285016152f7565b60808301525092915050565b60006154113683615325565b9050919050565b600060808201905061542d6000830187614c51565b61543a6020830186614c51565b61544760408301856148fa565b6154546060830184614e47565b95945050505050565b600081519050919050565b600082825260208201905092915050565b60005b8381101561549757808201518184015260208101905061547c565b60008484015250505050565b60006154ae8261545d565b6154b88185615468565b93506154c8818560208601615479565b6154d181614632565b840191505092915050565b600081519050919050565b600082825260208201905092915050565b6000819050602082019050919050565b60408201600082015161551e600085018261497d565b506020820151615531602085018261498c565b50505050565b60006155438383615508565b60408301905092915050565b6000602082019050919050565b6000615567826154dc565b61557181856154e7565b935061557c836154f8565b8060005b838110156155ad5781516155948882615537565b975061559f8361554f565b925050600181019050615580565b5085935050505092915050565b600060a08301600083015184820360008601526155d782826154a3565b915050602083015184820360208601526155f182826154a3565b9150506040830151848203604086015261560b828261555c565b9150506060830151615620606086018261497d565b506080830151848203608086015261563882826154a3565b9150508091505092915050565b600060408201905061565a60008301856148fa565b818103602083015261566c81846155ba565b90509392505050565b6000815190506156848161488e565b92915050565b6000602082840312156156a05761569f614568565b5b60006156ae84828501615675565b91505092915050565b6000815190506156c681614858565b92915050565b6000602082840312156156e2576156e1614568565b5b60006156f0848285016156b7565b91505092915050565b6000819050602082019050919050565b60006157158251614572565b80915050919050565b600082821b905092915050565b60006157368261545d565b82615740846156f9565b905061574b81615709565b9250600482101561578b576157867fffffffff000000000000000000000000000000000000000000000000000000008360040360080261571e565b831692505b5050919050565b600082825260208201905092915050565b60006157ae8261545d565b6157b88185615792565b93506157c8818560208601615479565b6157d181614632565b840191505092915050565b600060208201905081810360008301526157f681846157a3565b905092915050565b600061581161580c8461515d565b6146a3565b90508281526020810184848401111561582d5761582c615158565b5b615838848285615479565b509392505050565b600082601f83011261585557615854615153565b5b81516158658482602086016157fe565b91505092915050565b60006020828403121561588457615883614568565b5b600082015167ffffffffffffffff8111156158a2576158a161456d565b5b6158ae84828501615840565b91505092915050565b6158c081614572565b82525050565b600082825260208201905092915050565b60006158e28261545d565b6158ec81856158c6565b93506158fc818560208601615479565b61590581614632565b840191505092915050565b600060408201905061592560008301856158b7565b818103602083015261593781846158d7565b90509392505050565b6000806040838503121561595757615956614568565b5b6000615965858286016156b7565b925050602061597685828601615675565b9150509250929050565b60006060820190506159956000830186614c51565b6159a26020830185614c51565b6159af6040830184614e47565b949350505050565b6159c0816145f7565b82525050565b6040820160008201516159dc600085018261498c565b5060208201516159ef60208501826159b7565b50505050565b6000604082019050615a0a60008301846159c6565b92915050565b6000615a1b82614761565b91506fffffffffffffffffffffffffffffffff8203615a3d57615a3c614f11565b5b600182019050919050565b6000615a5382614884565b91507fffffffffffffffffffffffffffffffffffffffffffffffffffffffffffffffff8203615a8557615a84614f11565b5b600182019050919050565b615a99816145f7565b8114615aa457600080fd5b50565b600081519050615ab681615a90565b92915050565b600060208284031215615ad257615ad1614568565b5b6000615ae084828501615aa7565b91505092915050565b600081519050919050565b600082825260208201905092915050565b6000819050602082019050919050565b604082016000820151615b2b600085018261497d565b506020820151615b3e602085018261498c565b50505050565b6000615b508383615b15565b60408301905092915050565b6000602082019050919050565b6000615b7482615ae9565b615b7e8185615af4565b9350615b8983615b05565b8060005b83811015615bba578151615ba18882615b44565b9750615bac83615b5c565b925050600181019050615b8d565b5085935050505092915050565b6000606082019050615bdc6000830186614da5565b615be96020830185614e47565b8181036040830152615bfb8184615b69565b9050949350505050565b60006020820190508181036000830152615c1f81846158d7565b905092915050565b60006020820190508181036000830152615c418184615b69565b905092915050565b600081905092915050565b6000615c5f8261545d565b615c698185615c49565b9350615c79818560208601615479565b80840191505092915050565b6000615c918284615c54565b91508190509291505056fea26469706673582212200cbfc78093049481fdad3ea1dd0b200a2cce9c9098daff58562ccd90772d51c264736f6c63430008170033",
  "linkReferences": {
    "contracts/SelectorLib.sol": {
      "SelectorLib": [
        {
          "length": 20,
          "start": 15718
        }
      ]
    }
  },
  "deployedLinkReferences": {
    "contracts/SelectorLib.sol": {
      "SelectorLib": [
        {
          "length": 20,
          "start": 13092
        }
      ]
    }
  }
}