{
  "_format": "hh-sol-artifact-1",
  "contractName": "CrossChainSwapper",
  "sourceName": "contracts/CrossChainSwapper.sol",
  "abi": [
    {
      "inputs": [
        {
          "internalType": "uint64",
          "name": "_sourceChainId",
          "type": "uint64"
        },
        {
          "components": [
            {
              "internalType": "address",
              "name": "sourceToken",
              "type": "address"
            },
            {
              "internalType": "address",
              "name": "destinationToken",
              "type": "address"
            },
            {
              "internalType": "uint64",
              "name": "destinationChainId",
              "type": "uint64"
            },
            {
              "internalType": "uint128",
              "name": "rate",
              "type": "uint128"
            }
          ],
          "internalType": "struct CrossChainSwapper.LiquidityPoolData[]",
          "name": "_validPools",
          "type": "tuple[]"
        },
        {
          "internalType": "address",
          "name": "_router",
          "type": "address"
        },
        {
          "internalType": "address",
          "name": "_linkToken",
          "type": "address"
        }
      ],
      "stateMutability": "nonpayable",
      "type": "constructor"
    },
    {
      "inputs": [
        {
          "internalType": "address",
          "name": "target",
          "type": "address"
        }
      ],
      "name": "AddressEmptyCode",
      "type": "error"
    },
    {
      "inputs": [
        {
          "internalType": "address",
          "name": "account",
          "type": "address"
        }
      ],
      "name": "AddressInsufficientBalance",
      "type": "error"
    },
    {
      "inputs": [],
      "name": "FailedInnerCall",
      "type": "error"
    },
    {
      "inputs": [],
      "name": "InvalidAmount",
      "type": "error"
    },
    {
      "inputs": [],
      "name": "InvalidPool",
      "type": "error"
    },
    {
      "inputs": [
        {
          "internalType": "address",
          "name": "router",
          "type": "address"
        }
      ],
      "name": "InvalidRouter",
      "type": "error"
    },
    {
      "inputs": [],
      "name": "InvalidToken",
      "type": "error"
    },
    {
      "inputs": [
        {
          "internalType": "uint256",
          "name": "balance",
          "type": "uint256"
        },
        {
          "internalType": "uint256",
          "name": "fees",
          "type": "uint256"
        }
      ],
      "name": "NotEnoughLink",
      "type": "error"
    },
    {
      "inputs": [],
      "name": "NotEnoughLockedTokens",
      "type": "error"
    },
    {
      "inputs": [],
      "name": "NotEnoughPoolLiquidity",
      "type": "error"
    },
    {
      "inputs": [],
      "name": "NotEnoughUnlockedTokens",
      "type": "error"
    },
    {
      "inputs": [],
      "name": "NotSwapperToken",
      "type": "error"
    },
    {
      "inputs": [
        {
          "internalType": "address",
          "name": "token",
          "type": "address"
        }
      ],
      "name": "SafeERC20FailedOperation",
      "type": "error"
    },
    {
      "anonymous": false,
      "inputs": [
        {
          "indexed": false,
          "internalType": "bytes32",
          "name": "poolKey",
          "type": "bytes32"
        },
        {
          "indexed": false,
          "internalType": "uint256",
          "name": "poolBalance",
          "type": "uint256"
        }
      ],
      "name": "MakeSwap",
      "type": "event"
    },
    {
      "anonymous": false,
      "inputs": [
        {
          "indexed": true,
          "internalType": "bytes32",
          "name": "messageId",
          "type": "bytes32"
        },
        {
          "indexed": true,
          "internalType": "bytes32",
          "name": "destinationPoolKey",
          "type": "bytes32"
        },
        {
          "components": [
            {
              "internalType": "address",
              "name": "maker",
              "type": "address"
            },
            {
              "internalType": "uint256",
              "name": "amount",
              "type": "uint256"
            }
          ],
          "indexed": false,
          "internalType": "struct CrossChainSwapper.MakerSwap[]",
          "name": "filledMakerSwaps",
          "type": "tuple[]"
        }
      ],
      "name": "MakerSwaps",
      "type": "event"
    },
    {
      "anonymous": false,
      "inputs": [
        {
          "indexed": false,
          "internalType": "bytes4",
          "name": "selector",
          "type": "bytes4"
        },
        {
          "indexed": false,
          "internalType": "bytes",
          "name": "payload",
          "type": "bytes"
        }
      ],
      "name": "ReceiverCCIPMessage",
      "type": "event"
    },
    {
      "anonymous": false,
      "inputs": [
        {
          "indexed": false,
          "internalType": "bytes",
          "name": "payload",
          "type": "bytes"
        }
      ],
      "name": "SendingCCIPMessage",
      "type": "event"
    },
    {
      "anonymous": false,
      "inputs": [
        {
          "indexed": true,
          "internalType": "bytes32",
          "name": "messageId",
          "type": "bytes32"
        },
        {
          "indexed": true,
          "internalType": "bytes32",
          "name": "destinationPoolKey",
          "type": "bytes32"
        },
        {
          "indexed": false,
          "internalType": "uint256",
          "name": "sourceAmount",
          "type": "uint256"
        },
        {
          "indexed": false,
          "internalType": "uint256",
          "name": "destinationAmount",
          "type": "uint256"
        }
      ],
      "name": "TakeSwap",
      "type": "event"
    },
    {
      "inputs": [
        {
          "internalType": "uint256",
          "name": "chainId",
          "type": "uint256"
        },
        {
          "components": [
            {
              "internalType": "uint64",
              "name": "ccipChainSelector",
              "type": "uint64"
            },
            {
              "internalType": "address",
              "name": "swapper",
              "type": "address"
            }
          ],
          "internalType": "struct CrossChainSwapper.DestinationData",
          "name": "_destination",
          "type": "tuple"
        }
      ],
      "name": "addDestination",
      "outputs": [],
      "stateMutability": "nonpayable",
      "type": "function"
    },
    {
      "inputs": [
        {
          "components": [
            {
              "internalType": "address",
              "name": "sourceToken",
              "type": "address"
            },
            {
              "internalType": "address",
              "name": "destinationToken",
              "type": "address"
            },
            {
              "internalType": "uint64",
              "name": "destinationChainId",
              "type": "uint64"
            },
            {
              "internalType": "uint128",
              "name": "rate",
              "type": "uint128"
            }
          ],
          "internalType": "struct CrossChainSwapper.LiquidityPoolData",
          "name": "_pool",
          "type": "tuple"
        }
      ],
      "name": "addLiquidityPool",
      "outputs": [],
      "stateMutability": "nonpayable",
      "type": "function"
    },
    {
      "inputs": [],
      "name": "allMakerSwaps",
      "outputs": [
        {
          "components": [
            {
              "internalType": "address",
              "name": "maker",
              "type": "address"
            },
            {
              "internalType": "uint256",
              "name": "amount",
              "type": "uint256"
            }
          ],
          "internalType": "struct CrossChainSwapper.MakerSwap[]",
          "name": "makerSwaps_",
          "type": "tuple[]"
        }
      ],
      "stateMutability": "view",
      "type": "function"
    },
    {
      "inputs": [
        {
          "internalType": "address",
          "name": "sourceToken",
          "type": "address"
        },
        {
          "internalType": "address",
          "name": "destinationToken",
          "type": "address"
        },
        {
          "internalType": "uint64",
          "name": "destinationChainId",
          "type": "uint64"
        },
        {
          "internalType": "uint256",
          "name": "rate",
          "type": "uint256"
        }
      ],
      "name": "calcPoolKey",
      "outputs": [
        {
          "internalType": "bytes32",
          "name": "poolKey",
          "type": "bytes32"
        }
      ],
      "stateMutability": "pure",
      "type": "function"
    },
    {
      "inputs": [
        {
          "internalType": "bytes32",
          "name": "poolKey",
          "type": "bytes32"
        },
        {
          "internalType": "uint256",
          "name": "amount",
          "type": "uint256"
        }
      ],
      "name": "cancelSwap",
      "outputs": [],
      "stateMutability": "nonpayable",
      "type": "function"
    },
    {
      "inputs": [
        {
          "components": [
            {
              "internalType": "bytes32",
              "name": "messageId",
              "type": "bytes32"
            },
            {
              "internalType": "uint64",
              "name": "sourceChainSelector",
              "type": "uint64"
            },
            {
              "internalType": "bytes",
              "name": "sender",
              "type": "bytes"
            },
            {
              "internalType": "bytes",
              "name": "data",
              "type": "bytes"
            },
            {
              "components": [
                {
                  "internalType": "address",
                  "name": "token",
                  "type": "address"
                },
                {
                  "internalType": "uint256",
                  "name": "amount",
                  "type": "uint256"
                }
              ],
              "internalType": "struct Client.EVMTokenAmount[]",
              "name": "destTokenAmounts",
              "type": "tuple[]"
            }
          ],
          "internalType": "struct Client.Any2EVMMessage",
          "name": "message",
          "type": "tuple"
        }
      ],
      "name": "ccipReceive",
      "outputs": [],
      "stateMutability": "nonpayable",
      "type": "function"
    },
    {
      "inputs": [
        {
          "internalType": "address",
          "name": "token",
          "type": "address"
        },
        {
          "internalType": "uint256",
          "name": "amount",
          "type": "uint256"
        }
      ],
      "name": "deposit",
      "outputs": [],
      "stateMutability": "nonpayable",
      "type": "function"
    },
    {
      "inputs": [
        {
          "internalType": "uint256",
          "name": "",
          "type": "uint256"
        }
      ],
      "name": "destinations",
      "outputs": [
        {
          "internalType": "uint64",
          "name": "ccipChainSelector",
          "type": "uint64"
        },
        {
          "internalType": "address",
          "name": "swapper",
          "type": "address"
        }
      ],
      "stateMutability": "view",
      "type": "function"
    },
    {
      "inputs": [],
      "name": "getRouter",
      "outputs": [
        {
          "internalType": "address",
          "name": "",
          "type": "address"
        }
      ],
      "stateMutability": "view",
      "type": "function"
    },
    {
      "inputs": [],
      "name": "linkToken",
      "outputs": [
        {
          "internalType": "address",
          "name": "",
          "type": "address"
        }
      ],
      "stateMutability": "view",
      "type": "function"
    },
    {
      "inputs": [
        {
          "internalType": "bytes32",
          "name": "",
          "type": "bytes32"
        }
      ],
      "name": "liquidityPools",
      "outputs": [
        {
          "internalType": "uint256",
          "name": "balance",
          "type": "uint256"
        },
        {
          "components": [
            {
              "internalType": "uint128",
              "name": "next",
              "type": "uint128"
            },
            {
              "internalType": "uint128",
              "name": "last",
              "type": "uint128"
            }
          ],
          "internalType": "struct CrossChainSwapper.QueueMetaData",
          "name": "queueData",
          "type": "tuple"
        },
        {
          "components": [
            {
              "internalType": "address",
              "name": "sourceToken",
              "type": "address"
            },
            {
              "internalType": "address",
              "name": "destinationToken",
              "type": "address"
            },
            {
              "internalType": "uint64",
              "name": "destinationChainId",
              "type": "uint64"
            },
            {
              "internalType": "uint128",
              "name": "rate",
              "type": "uint128"
            }
          ],
          "internalType": "struct CrossChainSwapper.LiquidityPoolData",
          "name": "poolData",
          "type": "tuple"
        }
      ],
      "stateMutability": "view",
      "type": "function"
    },
    {
      "inputs": [
        {
          "internalType": "address",
          "name": "sourceToken",
          "type": "address"
        },
        {
          "internalType": "address",
          "name": "destinationToken",
          "type": "address"
        },
        {
          "internalType": "uint64",
          "name": "destinationChainId",
          "type": "uint64"
        },
        {
          "internalType": "uint256",
          "name": "rate",
          "type": "uint256"
        },
        {
          "internalType": "uint256",
          "name": "amount",
          "type": "uint256"
        }
      ],
      "name": "makeSwap",
      "outputs": [],
      "stateMutability": "nonpayable",
      "type": "function"
    },
    {
      "inputs": [
        {
          "internalType": "bytes32",
          "name": "poolKey",
          "type": "bytes32"
        }
      ],
      "name": "makerSwaps",
      "outputs": [
        {
          "components": [
            {
              "internalType": "address",
              "name": "maker",
              "type": "address"
            },
            {
              "internalType": "uint256",
              "name": "amount",
              "type": "uint256"
            }
          ],
          "internalType": "struct CrossChainSwapper.MakerSwap[]",
          "name": "makerSwaps_",
          "type": "tuple[]"
        }
      ],
      "stateMutability": "view",
      "type": "function"
    },
    {
      "inputs": [],
      "name": "sourceChainId",
      "outputs": [
        {
          "internalType": "uint64",
          "name": "",
          "type": "uint64"
        }
      ],
      "stateMutability": "view",
      "type": "function"
    },
    {
      "inputs": [
        {
          "internalType": "bytes4",
          "name": "interfaceId",
          "type": "bytes4"
        }
      ],
      "name": "supportsInterface",
      "outputs": [
        {
          "internalType": "bool",
          "name": "",
          "type": "bool"
        }
      ],
      "stateMutability": "pure",
      "type": "function"
    },
    {
      "inputs": [
        {
          "internalType": "address",
          "name": "sourceToken",
          "type": "address"
        },
        {
          "internalType": "address",
          "name": "destinationToken",
          "type": "address"
        },
        {
          "internalType": "uint64",
          "name": "destinationChainId",
          "type": "uint64"
        },
        {
          "internalType": "uint256",
          "name": "rate",
          "type": "uint256"
        },
        {
          "internalType": "uint256",
          "name": "amount",
          "type": "uint256"
        }
      ],
      "name": "takeSwap",
      "outputs": [],
      "stateMutability": "nonpayable",
      "type": "function"
    },
    {
      "inputs": [
        {
          "internalType": "address",
          "name": "",
          "type": "address"
        },
        {
          "internalType": "address",
          "name": "",
          "type": "address"
        }
      ],
      "name": "userBalances",
      "outputs": [
        {
          "internalType": "uint128",
          "name": "locked",
          "type": "uint128"
        },
        {
          "internalType": "uint128",
          "name": "unlocked",
          "type": "uint128"
        }
      ],
      "stateMutability": "view",
      "type": "function"
    },
    {
      "inputs": [
        {
          "internalType": "address",
          "name": "user",
          "type": "address"
        }
      ],
      "name": "userMakerSwaps",
      "outputs": [
        {
          "components": [
            {
              "internalType": "address",
              "name": "maker",
              "type": "address"
            },
            {
              "internalType": "uint256",
              "name": "amount",
              "type": "uint256"
            }
          ],
          "internalType": "struct CrossChainSwapper.MakerSwap[]",
          "name": "makerSwaps_",
          "type": "tuple[]"
        }
      ],
      "stateMutability": "view",
      "type": "function"
    },
    {
      "inputs": [
        {
          "internalType": "bytes32",
          "name": "",
          "type": "bytes32"
        }
      ],
      "name": "validPools",
      "outputs": [
        {
          "internalType": "bool",
          "name": "",
          "type": "bool"
        }
      ],
      "stateMutability": "view",
      "type": "function"
    },
    {
      "inputs": [
        {
          "internalType": "address",
          "name": "",
          "type": "address"
        }
      ],
      "name": "validSourceTokens",
      "outputs": [
        {
          "internalType": "bool",
          "name": "",
          "type": "bool"
        }
      ],
      "stateMutability": "view",
      "type": "function"
    },
    {
      "inputs": [
        {
          "internalType": "address",
          "name": "token",
          "type": "address"
        },
        {
          "internalType": "uint256",
          "name": "amount",
          "type": "uint256"
        }
      ],
      "name": "withdraw",
      "outputs": [],
      "stateMutability": "nonpayable",
      "type": "function"
    }
  ],
  "bytecode": "0x60e06040523480156200001157600080fd5b5060405162005bf538038062005bf58339818101604052810190620000379190620007c2565b81600073ffffffffffffffffffffffffffffffffffffffff168173ffffffffffffffffffffffffffffffffffffffff1603620000ad5760006040517fd7f73334000000000000000000000000000000000000000000000000000000008152600401620000a4919062000864565b60405180910390fd5b8073ffffffffffffffffffffffffffffffffffffffff1660808173ffffffffffffffffffffffffffffffffffffffff1681525050508367ffffffffffffffff1660a08167ffffffffffffffff16815250508073ffffffffffffffffffffffffffffffffffffffff1660c08173ffffffffffffffffffffffffffffffffffffffff168152505060005b835181101562000179576200016d84828151811062000159576200015862000881565b5b60200260200101516200022860201b60201c565b80600101905062000135565b508073ffffffffffffffffffffffffffffffffffffffff1663095ea7b3837fffffffffffffffffffffffffffffffffffffffffffffffffffffffffffffffff6040518363ffffffff1660e01b8152600401620001d7929190620008cb565b6020604051808303816000875af1158015620001f7573d6000803e3d6000fd5b505050506040513d601f19601f820116820180604052508101906200021d919062000935565b5050505050620009c5565b600160046000836000015173ffffffffffffffffffffffffffffffffffffffff1673ffffffffffffffffffffffffffffffffffffffff16815260200190815260200160002060006101000a81548160ff0219169083151502179055506000620002bc82600001518360200151846040015185606001516fffffffffffffffffffffffffffffffff166200047d60201b60201c565b905060016005600083815260200190815260200160002060006101000a81548160ff021916908315150217905550600180600083815260200190815260200160002060020160000160006101000a8154816fffffffffffffffffffffffffffffffff02191690836fffffffffffffffffffffffffffffffff160217905550816001600083815260200190815260200160002060030160008201518160000160006101000a81548173ffffffffffffffffffffffffffffffffffffffff021916908373ffffffffffffffffffffffffffffffffffffffff16021790555060208201518160010160006101000a81548173ffffffffffffffffffffffffffffffffffffffff021916908373ffffffffffffffffffffffffffffffffffffffff16021790555060408201518160010160146101000a81548167ffffffffffffffff021916908367ffffffffffffffff16021790555060608201518160020160006101000a8154816fffffffffffffffffffffffffffffffff02191690836fffffffffffffffffffffffffffffffff16021790555090505060028190806001815401808255809150506001900390600052602060002001600090919091909150555050565b60008484848460405160200162000498949392919062000978565b604051602081830303815290604052805190602001209050949350505050565b6000604051905090565b600080fd5b600080fd5b600067ffffffffffffffff82169050919050565b620004eb81620004cc565b8114620004f757600080fd5b50565b6000815190506200050b81620004e0565b92915050565b600080fd5b6000601f19601f8301169050919050565b7f4e487b7100000000000000000000000000000000000000000000000000000000600052604160045260246000fd5b620005618262000516565b810181811067ffffffffffffffff8211171562000583576200058262000527565b5b80604052505050565b600062000598620004b8565b9050620005a6828262000556565b919050565b600067ffffffffffffffff821115620005c957620005c862000527565b5b602082029050602081019050919050565b600080fd5b600080fd5b600073ffffffffffffffffffffffffffffffffffffffff82169050919050565b60006200061182620005e4565b9050919050565b620006238162000604565b81146200062f57600080fd5b50565b600081519050620006438162000618565b92915050565b60006fffffffffffffffffffffffffffffffff82169050919050565b620006708162000649565b81146200067c57600080fd5b50565b600081519050620006908162000665565b92915050565b600060808284031215620006af57620006ae620005df565b5b620006bb60806200058c565b90506000620006cd8482850162000632565b6000830152506020620006e38482850162000632565b6020830152506040620006f984828501620004fa565b60408301525060606200070f848285016200067f565b60608301525092915050565b6000620007326200072c84620005ab565b6200058c565b90508083825260208201905060808402830185811115620007585762000757620005da565b5b835b8181101562000785578062000770888262000696565b8452602084019350506080810190506200075a565b5050509392505050565b600082601f830112620007a757620007a662000511565b5b8151620007b98482602086016200071b565b91505092915050565b60008060008060808587031215620007df57620007de620004c2565b5b6000620007ef87828801620004fa565b945050602085015167ffffffffffffffff811115620008135762000812620004c7565b5b62000821878288016200078f565b9350506040620008348782880162000632565b9250506060620008478782880162000632565b91505092959194509250565b6200085e8162000604565b82525050565b60006020820190506200087b600083018462000853565b92915050565b7f4e487b7100000000000000000000000000000000000000000000000000000000600052603260045260246000fd5b6000819050919050565b620008c581620008b0565b82525050565b6000604082019050620008e2600083018562000853565b620008f16020830184620008ba565b9392505050565b60008115159050919050565b6200090f81620008f8565b81146200091b57600080fd5b50565b6000815190506200092f8162000904565b92915050565b6000602082840312156200094e576200094d620004c2565b5b60006200095e848285016200091e565b91505092915050565b6200097281620004cc565b82525050565b60006080820190506200098f600083018762000853565b6200099e602083018662000853565b620009ad604083018562000967565b620009bc6060830184620008ba565b95945050505050565b60805160a05160c0516151ba62000a3b600039600081816118ab015281816127f4015281816128fe015281816136a501526137af0152600081816109bf01526110490152600081816118cf01528181611cd20152818161285a015281816129e10152818161370b015261389401526151ba6000f3fe608060405234801561001057600080fd5b50600436106101375760003560e01c80634ece6dfc116100b857806396dcecbe1161007c57806396dcecbe1461035d57806398a5410a1461038d578063adb51980146103ab578063b0f479a1146103dc578063cfedc644146103fa578063f3fef3a31461042c57610137565b80634ece6dfc146102a657806351369e77146102c257806357970e93146102f257806385572ffb146103105780638dd4ba2e1461032c57610137565b80631e79d399116100ff5780631e79d399146101f257806325669e831461020e57806330e325551461023e57806347e7ef241461026e5780634e9695151461028a57610137565b806301ffc9a71461013c578063028dcabe1461016c57806314488fe4146101885780631544298e146101a45780631d06df6e146101c2575b600080fd5b61015660048036038101906101519190613bfe565b610448565b6040516101639190613c46565b60405180910390f35b61018660048036038101906101819190613e55565b61051a565b005b6101a2600480360381019061019d9190613eee565b610526565b005b6101ac6109bd565b6040516101b99190613f3d565b60405180910390f35b6101dc60048036038101906101d79190613f58565b6109e1565b6040516101e99190614081565b60405180910390f35b61020c600480360381019061020791906140f3565b610c0b565b005b61022860048036038101906102239190614133565b610c9c565b6040516102359190613c46565b60405180910390f35b61025860048036038101906102539190613f58565b610cbc565b6040516102659190613c46565b60405180910390f35b61028860048036038101906102839190614160565b610cdc565b005b6102a4600480360381019061029f91906141a0565b610cea565b005b6102c060048036038101906102bb91906141a0565b61111f565b005b6102dc60048036038101906102d79190614133565b611607565b6040516102e99190614081565b60405180910390f35b6102fa6118a9565b604051610307919061422a565b60405180910390f35b61032a60048036038101906103259190614269565b6118cd565b005b610346600480360381019061034191906142b2565b611972565b6040516103549291906142df565b60405180910390f35b61037760048036038101906103729190614308565b6119ca565b604051610384919061437e565b60405180910390f35b610395611a03565b6040516103a29190614081565b60405180910390f35b6103c560048036038101906103c09190614399565b611c65565b6040516103d39291906143e8565b60405180910390f35b6103e4611cce565b6040516103f1919061422a565b60405180910390f35b610414600480360381019061040f9190613f58565b611cf6565b604051610423939291906144c2565b60405180910390f35b61044660048036038101906104419190614160565b611ef0565b005b60007f85572ffb000000000000000000000000000000000000000000000000000000007bffffffffffffffffffffffffffffffffffffffffffffffffffffffff1916827bffffffffffffffffffffffffffffffffffffffffffffffffffffffff1916148061051357507f01ffc9a7000000000000000000000000000000000000000000000000000000007bffffffffffffffffffffffffffffffffffffffffffffffffffffffff1916827bffffffffffffffffffffffffffffffffffffffffffffffffffffffff1916145b9050919050565b610523816121c1565b50565b6005600083815260200190815260200160002060009054906101000a900460ff1661057d576040517f2083cd4000000000000000000000000000000000000000000000000000000000815260040160405180910390fd5b6000600160008481526020019081526020016000206003016040518060800160405290816000820160009054906101000a900473ffffffffffffffffffffffffffffffffffffffff1673ffffffffffffffffffffffffffffffffffffffff1673ffffffffffffffffffffffffffffffffffffffff1681526020016001820160009054906101000a900473ffffffffffffffffffffffffffffffffffffffff1673ffffffffffffffffffffffffffffffffffffffff1673ffffffffffffffffffffffffffffffffffffffff1681526020016001820160149054906101000a900467ffffffffffffffff1667ffffffffffffffff1667ffffffffffffffff1681526020016002820160009054906101000a90046fffffffffffffffffffffffffffffffff166fffffffffffffffffffffffffffffffff166fffffffffffffffffffffffffffffffff1681525050905060008060003373ffffffffffffffffffffffffffffffffffffffff1673ffffffffffffffffffffffffffffffffffffffff1681526020019081526020016000206000836000015173ffffffffffffffffffffffffffffffffffffffff1673ffffffffffffffffffffffffffffffffffffffff1681526020019081526020016000206040518060400160405290816000820160009054906101000a90046fffffffffffffffffffffffffffffffff166fffffffffffffffffffffffffffffffff166fffffffffffffffffffffffffffffffff1681526020016000820160109054906101000a90046fffffffffffffffffffffffffffffffff166fffffffffffffffffffffffffffffffff166fffffffffffffffffffffffffffffffff168152505090508281600001516fffffffffffffffffffffffffffffffff16101561083c576040517f1925ea0600000000000000000000000000000000000000000000000000000000815260040160405180910390fd5b60405180604001604052808483600001516fffffffffffffffffffffffffffffffff166108699190614528565b6fffffffffffffffffffffffffffffffff1681526020018483602001516fffffffffffffffffffffffffffffffff166108a2919061455c565b6fffffffffffffffffffffffffffffffff168152506000803373ffffffffffffffffffffffffffffffffffffffff1673ffffffffffffffffffffffffffffffffffffffff1681526020019081526020016000206000846000015173ffffffffffffffffffffffffffffffffffffffff1673ffffffffffffffffffffffffffffffffffffffff16815260200190815260200160002060008201518160000160006101000a8154816fffffffffffffffffffffffffffffffff02191690836fffffffffffffffffffffffffffffffff16021790555060208201518160000160106101000a8154816fffffffffffffffffffffffffffffffff02191690836fffffffffffffffffffffffffffffffff16021790555090505050505050565b7f000000000000000000000000000000000000000000000000000000000000000081565b606060006001600084815260200190815260200160002090506000816002016040518060400160405290816000820160009054906101000a90046fffffffffffffffffffffffffffffffff166fffffffffffffffffffffffffffffffff166fffffffffffffffffffffffffffffffff1681526020016000820160109054906101000a90046fffffffffffffffffffffffffffffffff166fffffffffffffffffffffffffffffffff166fffffffffffffffffffffffffffffffff168152505090506000816000015160018360200151610ab99190614590565b610ac391906145d4565b6fffffffffffffffffffffffffffffffff1690508067ffffffffffffffff811115610af157610af0613c77565b5b604051908082528060200260200182016040528015610b2a57816020015b610b17613b32565b815260200190600190039081610b0f5790505b50935060005b81811015610c02578360010160008285600001516fffffffffffffffffffffffffffffffff16610b60919061455c565b81526020019081526020016000206040518060400160405290816000820160009054906101000a900473ffffffffffffffffffffffffffffffffffffffff1673ffffffffffffffffffffffffffffffffffffffff1673ffffffffffffffffffffffffffffffffffffffff168152602001600182015481525050858281518110610bec57610beb614618565b5b6020026020010181905250806001019050610b30565b50505050919050565b806003600084815260200190815260200160002060008201518160000160006101000a81548167ffffffffffffffff021916908367ffffffffffffffff16021790555060208201518160000160086101000a81548173ffffffffffffffffffffffffffffffffffffffff021916908373ffffffffffffffffffffffffffffffffffffffff1602179055509050505050565b60046020528060005260406000206000915054906101000a900460ff1681565b60056020528060005260406000206000915054906101000a900460ff1681565b610ce6828261240e565b5050565b610cf4858261240e565b60008060003373ffffffffffffffffffffffffffffffffffffffff1673ffffffffffffffffffffffffffffffffffffffff16815260200190815260200160002060008773ffffffffffffffffffffffffffffffffffffffff1673ffffffffffffffffffffffffffffffffffffffff1681526020019081526020016000206040518060400160405290816000820160009054906101000a90046fffffffffffffffffffffffffffffffff166fffffffffffffffffffffffffffffffff166fffffffffffffffffffffffffffffffff1681526020016000820160109054906101000a90046fffffffffffffffffffffffffffffffff166fffffffffffffffffffffffffffffffff166fffffffffffffffffffffffffffffffff168152505090508181602001516fffffffffffffffffffffffffffffffff161015610e62576040517fa14bb0e400000000000000000000000000000000000000000000000000000000815260040160405180910390fd5b6000610e70878787876119ca565b90506005600082815260200190815260200160002060009054906101000a900460ff16610ec9576040517f2083cd4000000000000000000000000000000000000000000000000000000000815260040160405180910390fd5b60405180604001604052808484600001516fffffffffffffffffffffffffffffffff16610ef6919061455c565b6fffffffffffffffffffffffffffffffff1681526020018484602001516fffffffffffffffffffffffffffffffff16610f2f9190614528565b6fffffffffffffffffffffffffffffffff168152506000803373ffffffffffffffffffffffffffffffffffffffff1673ffffffffffffffffffffffffffffffffffffffff16815260200190815260200160002060008973ffffffffffffffffffffffffffffffffffffffff1673ffffffffffffffffffffffffffffffffffffffff16815260200190815260200160002060008201518160000160006101000a8154816fffffffffffffffffffffffffffffffff02191690836fffffffffffffffffffffffffffffffff16021790555060208201518160000160106101000a8154816fffffffffffffffffffffffffffffffff02191690836fffffffffffffffffffffffffffffffff160217905550905050600061108c87897f000000000000000000000000000000000000000000000000000000000000000088670de0b6b3a76400008061107d9190614647565b61108791906146b8565b6119ca565b9050600085670de0b6b3a7640000866110a59190614647565b6110af91906146b8565b9050600060016000858152602001908152602001600020905060006110d58285856125f8565b905083817f34187dcaf98362bbf4144e7af22b95240c7e7fd2fcc23c78b5062e907e7188b8898660405161110a9291906146e9565b60405180910390a35050505050505050505050565b611129858261240e565b6000611137868686866119ca565b90506005600082815260200190815260200160002060009054906101000a900460ff16611190576040517f2083cd4000000000000000000000000000000000000000000000000000000000815260040160405180910390fd5b60008060003373ffffffffffffffffffffffffffffffffffffffff1673ffffffffffffffffffffffffffffffffffffffff16815260200190815260200160002060008873ffffffffffffffffffffffffffffffffffffffff1673ffffffffffffffffffffffffffffffffffffffff1681526020019081526020016000206040518060400160405290816000820160009054906101000a90046fffffffffffffffffffffffffffffffff166fffffffffffffffffffffffffffffffff166fffffffffffffffffffffffffffffffff1681526020016000820160109054906101000a90046fffffffffffffffffffffffffffffffff166fffffffffffffffffffffffffffffffff166fffffffffffffffffffffffffffffffff168152505090508281602001516fffffffffffffffffffffffffffffffff1610156112fe576040517fa14bb0e400000000000000000000000000000000000000000000000000000000815260040160405180910390fd5b60405180604001604052808483600001516fffffffffffffffffffffffffffffffff1661132b919061455c565b6fffffffffffffffffffffffffffffffff1681526020018483602001516fffffffffffffffffffffffffffffffff166113649190614528565b6fffffffffffffffffffffffffffffffff168152506000803373ffffffffffffffffffffffffffffffffffffffff1673ffffffffffffffffffffffffffffffffffffffff16815260200190815260200160002060008973ffffffffffffffffffffffffffffffffffffffff1673ffffffffffffffffffffffffffffffffffffffff16815260200190815260200160002060008201518160000160006101000a8154816fffffffffffffffffffffffffffffffff02191690836fffffffffffffffffffffffffffffffff16021790555060208201518160000160106101000a8154816fffffffffffffffffffffffffffffffff02191690836fffffffffffffffffffffffffffffffff1602179055509050506000600160008481526020019081526020016000209050838160000160008282546114a0919061455c565b92505081905550600060018260020160000160109054906101000a90046fffffffffffffffffffffffffffffffff166114d99190614590565b905060405180604001604052803373ffffffffffffffffffffffffffffffffffffffff16815260200186815250826001016000836fffffffffffffffffffffffffffffffff16815260200190815260200160002060008201518160000160006101000a81548173ffffffffffffffffffffffffffffffffffffffff021916908373ffffffffffffffffffffffffffffffffffffffff16021790555060208201518160010155905050808260020160000160106101000a8154816fffffffffffffffffffffffffffffffff02191690836fffffffffffffffffffffffffffffffff1602179055507f66001c45494a559c7edade4a194d11da08f6b4a90ee4571b38ef9f16e4d082848483600001546040516115f4929190614712565b60405180910390a1505050505050505050565b606060005b6002805490508110156118a3576000600160006002848154811061163357611632614618565b5b9060005260206000200154815260200190815260200160002090506000816002016040518060400160405290816000820160009054906101000a90046fffffffffffffffffffffffffffffffff166fffffffffffffffffffffffffffffffff166fffffffffffffffffffffffffffffffff1681526020016000820160109054906101000a90046fffffffffffffffffffffffffffffffff166fffffffffffffffffffffffffffffffff166fffffffffffffffffffffffffffffffff16815250509050600081600001516001836020015161170d9190614590565b61171791906145d4565b6fffffffffffffffffffffffffffffffff1690508067ffffffffffffffff81111561174557611744613c77565b5b60405190808252806020026020018201604052801561177e57816020015b61176b613b32565b8152602001906001900390816117635790505b50945060005b818110156118945760008460010160008386600001516fffffffffffffffffffffffffffffffff166117b6919061455c565b81526020019081526020016000206040518060400160405290816000820160009054906101000a900473ffffffffffffffffffffffffffffffffffffffff1673ffffffffffffffffffffffffffffffffffffffff1673ffffffffffffffffffffffffffffffffffffffff16815260200160018201548152505090508773ffffffffffffffffffffffffffffffffffffffff16816000015173ffffffffffffffffffffffffffffffffffffffff1603611888578087838151811061187c5761187b614618565b5b60200260200101819052505b50806001019050611784565b5050505080600101905061160c565b50919050565b7f000000000000000000000000000000000000000000000000000000000000000081565b7f000000000000000000000000000000000000000000000000000000000000000073ffffffffffffffffffffffffffffffffffffffff163373ffffffffffffffffffffffffffffffffffffffff161461195d57336040517fd7f73334000000000000000000000000000000000000000000000000000000008152600401611954919061422a565b60405180910390fd5b61196f8161196a906149ed565b612a8f565b50565b60036020528060005260406000206000915090508060000160009054906101000a900467ffffffffffffffff16908060000160089054906101000a900473ffffffffffffffffffffffffffffffffffffffff16905082565b6000848484846040516020016119e39493929190614a00565b604051602081830303815290604052805190602001209050949350505050565b606060005b600280549050811015611c615760006001600060028481548110611a2f57611a2e614618565b5b9060005260206000200154815260200190815260200160002090506000816002016040518060400160405290816000820160009054906101000a90046fffffffffffffffffffffffffffffffff166fffffffffffffffffffffffffffffffff166fffffffffffffffffffffffffffffffff1681526020016000820160109054906101000a90046fffffffffffffffffffffffffffffffff166fffffffffffffffffffffffffffffffff166fffffffffffffffffffffffffffffffff168152505090506000816000015160018360200151611b099190614590565b611b1391906145d4565b6fffffffffffffffffffffffffffffffff1690508067ffffffffffffffff811115611b4157611b40613c77565b5b604051908082528060200260200182016040528015611b7a57816020015b611b67613b32565b815260200190600190039081611b5f5790505b50945060005b81811015611c52578360010160008285600001516fffffffffffffffffffffffffffffffff16611bb0919061455c565b81526020019081526020016000206040518060400160405290816000820160009054906101000a900473ffffffffffffffffffffffffffffffffffffffff1673ffffffffffffffffffffffffffffffffffffffff1673ffffffffffffffffffffffffffffffffffffffff168152602001600182015481525050868281518110611c3c57611c3b614618565b5b6020026020010181905250806001019050611b80565b50505050806001019050611a08565b5090565b6000602052816000526040600020602052806000526040600020600091509150508060000160009054906101000a90046fffffffffffffffffffffffffffffffff16908060000160109054906101000a90046fffffffffffffffffffffffffffffffff16905082565b60007f0000000000000000000000000000000000000000000000000000000000000000905090565b6001602052806000526040600020600091509050806000015490806002016040518060400160405290816000820160009054906101000a90046fffffffffffffffffffffffffffffffff166fffffffffffffffffffffffffffffffff166fffffffffffffffffffffffffffffffff1681526020016000820160109054906101000a90046fffffffffffffffffffffffffffffffff166fffffffffffffffffffffffffffffffff166fffffffffffffffffffffffffffffffff168152505090806003016040518060800160405290816000820160009054906101000a900473ffffffffffffffffffffffffffffffffffffffff1673ffffffffffffffffffffffffffffffffffffffff1673ffffffffffffffffffffffffffffffffffffffff1681526020016001820160009054906101000a900473ffffffffffffffffffffffffffffffffffffffff1673ffffffffffffffffffffffffffffffffffffffff1673ffffffffffffffffffffffffffffffffffffffff1681526020016001820160149054906101000a900467ffffffffffffffff1667ffffffffffffffff1667ffffffffffffffff1681526020016002820160009054906101000a90046fffffffffffffffffffffffffffffffff166fffffffffffffffffffffffffffffffff166fffffffffffffffffffffffffffffffff1681525050905083565b600460008373ffffffffffffffffffffffffffffffffffffffff1673ffffffffffffffffffffffffffffffffffffffff16815260200190815260200160002060009054906101000a900460ff16611f73576040517fc1ab6dc100000000000000000000000000000000000000000000000000000000815260040160405180910390fd5b6000811480611f9457506fffffffffffffffffffffffffffffffff80168110155b15611fcb576040517f2c5211c600000000000000000000000000000000000000000000000000000000815260040160405180910390fd5b6000803373ffffffffffffffffffffffffffffffffffffffff1673ffffffffffffffffffffffffffffffffffffffff16815260200190815260200160002060008373ffffffffffffffffffffffffffffffffffffffff1673ffffffffffffffffffffffffffffffffffffffff16815260200190815260200160002060000160109054906101000a90046fffffffffffffffffffffffffffffffff166fffffffffffffffffffffffffffffffff168111156120b1576040517fa14bb0e400000000000000000000000000000000000000000000000000000000815260040160405180910390fd5b806000803373ffffffffffffffffffffffffffffffffffffffff1673ffffffffffffffffffffffffffffffffffffffff16815260200190815260200160002060008473ffffffffffffffffffffffffffffffffffffffff1673ffffffffffffffffffffffffffffffffffffffff16815260200190815260200160002060000160108282829054906101000a90046fffffffffffffffffffffffffffffffff1661215a91906145d4565b92506101000a8154816fffffffffffffffffffffffffffffffff02191690836fffffffffffffffffffffffffffffffff1602179055506121bd3330838573ffffffffffffffffffffffffffffffffffffffff16612c6d909392919063ffffffff16565b5050565b600160046000836000015173ffffffffffffffffffffffffffffffffffffffff1673ffffffffffffffffffffffffffffffffffffffff16815260200190815260200160002060006101000a81548160ff021916908315150217905550600061224d82600001518360200151846040015185606001516fffffffffffffffffffffffffffffffff166119ca565b905060016005600083815260200190815260200160002060006101000a81548160ff021916908315150217905550600180600083815260200190815260200160002060020160000160006101000a8154816fffffffffffffffffffffffffffffffff02191690836fffffffffffffffffffffffffffffffff160217905550816001600083815260200190815260200160002060030160008201518160000160006101000a81548173ffffffffffffffffffffffffffffffffffffffff021916908373ffffffffffffffffffffffffffffffffffffffff16021790555060208201518160010160006101000a81548173ffffffffffffffffffffffffffffffffffffffff021916908373ffffffffffffffffffffffffffffffffffffffff16021790555060408201518160010160146101000a81548167ffffffffffffffff021916908367ffffffffffffffff16021790555060608201518160020160006101000a8154816fffffffffffffffffffffffffffffffff02191690836fffffffffffffffffffffffffffffffff16021790555090505060028190806001815401808255809150506001900390600052602060002001600090919091909150555050565b600460008373ffffffffffffffffffffffffffffffffffffffff1673ffffffffffffffffffffffffffffffffffffffff16815260200190815260200160002060009054906101000a900460ff16612491576040517fc1ab6dc100000000000000000000000000000000000000000000000000000000815260040160405180910390fd5b60008114806124b157506fffffffffffffffffffffffffffffffff801681115b156124e8576040517f2c5211c600000000000000000000000000000000000000000000000000000000815260040160405180910390fd5b6125153330838573ffffffffffffffffffffffffffffffffffffffff16612c6d909392919063ffffffff16565b806000803373ffffffffffffffffffffffffffffffffffffffff1673ffffffffffffffffffffffffffffffffffffffff16815260200190815260200160002060008473ffffffffffffffffffffffffffffffffffffffff1673ffffffffffffffffffffffffffffffffffffffff16815260200190815260200160002060000160108282829054906101000a90046fffffffffffffffffffffffffffffffff166125be9190614590565b92506101000a8154816fffffffffffffffffffffffffffffffff02191690836fffffffffffffffffffffffffffffffff1602179055505050565b600080838360405160240161260e929190614712565b6040516020818303038152906040527fc3a5273a000000000000000000000000000000000000000000000000000000007bffffffffffffffffffffffffffffffffffffffffffffffffffffffff19166020820180517bffffffffffffffffffffffffffffffffffffffffffffffffffffffff838183161783525050505090506000600360008760030160010160149054906101000a900467ffffffffffffffff1667ffffffffffffffff1681526020019081526020016000206040518060400160405290816000820160009054906101000a900467ffffffffffffffff1667ffffffffffffffff1667ffffffffffffffff1681526020016000820160089054906101000a900473ffffffffffffffffffffffffffffffffffffffff1673ffffffffffffffffffffffffffffffffffffffff1673ffffffffffffffffffffffffffffffffffffffff1681525050905060006040518060a00160405280836020015160405160200161277e919061422a565b6040516020818303038152906040528152602001848152602001600067ffffffffffffffff8111156127b3576127b2613c77565b5b6040519080825280602002602001820160405280156127ec57816020015b6127d9613b62565b8152602001906001900390816127d15790505b5081526020017f000000000000000000000000000000000000000000000000000000000000000073ffffffffffffffffffffffffffffffffffffffff1681526020016128516040518060400160405280620f4240815260200160001515815250612cef565b815250905060007f000000000000000000000000000000000000000000000000000000000000000073ffffffffffffffffffffffffffffffffffffffff166320487ded8460000151846040518363ffffffff1660e01b81526004016128b7929190614c2d565b602060405180830381865afa1580156128d4573d6000803e3d6000fd5b505050506040513d601f19601f820116820180604052508101906128f89190614c72565b905060007f000000000000000000000000000000000000000000000000000000000000000073ffffffffffffffffffffffffffffffffffffffff166370a08231306040518263ffffffff1660e01b8152600401612955919061422a565b602060405180830381865afa158015612972573d6000803e3d6000fd5b505050506040513d601f19601f820116820180604052508101906129969190614c72565b9050808211156129df5780826040517f449a29870000000000000000000000000000000000000000000000000000000081526004016129d69291906146e9565b60405180910390fd5b7f000000000000000000000000000000000000000000000000000000000000000073ffffffffffffffffffffffffffffffffffffffff166396f4e9f98560000151856040518363ffffffff1660e01b8152600401612a3e929190614c2d565b6020604051808303816000875af1158015612a5d573d6000803e3d6000fd5b505050506040513d601f19601f82011682018060405250810190612a819190614cb4565b955050505050509392505050565b60008160600151612a9f90614d13565b9050600073__$77495b9255afde2b07dd9728acc0dac662$__6397e1017f84606001516040518263ffffffff1660e01b8152600401612ade9190614dc4565b600060405180830381865af4158015612afb573d6000803e3d6000fd5b505050506040513d6000823e3d601f19601f82011682018060405250810190612b249190614e56565b90507fe2f0818238e5ef367dbf294d869a854d6c9725e7e275fe53ff413a8a919115c48282604051612b57929190614ef8565b60405180910390a163c3a5273a60e01b827bffffffffffffffffffffffffffffffffffffffffffffffffffffffff191603612bb45760008082806020019051810190612ba39190614f28565b91509150612bb18282612d6e565b50505b630db2314b60e01b827bffffffffffffffffffffffffffffffffffffffffffffffffffffffff191603612c6857612c676002600081548110612bf957612bf8614618565b5b9060005260206000200154673782dace9d900000600067ffffffffffffffff811115612c2857612c27613c77565b5b604051908082528060200260200182016040528015612c6157816020015b612c4e613b32565b815260200190600190039081612c465790505b5061322e565b5b505050565b612ce9848573ffffffffffffffffffffffffffffffffffffffff166323b872dd868686604051602401612ca293929190614f68565b604051602081830303815290604052915060e01b6020820180517bffffffffffffffffffffffffffffffffffffffffffffffffffffffff83818316178352505050506132a4565b50505050565b60606397a657c960e01b82604051602401612d0a9190614fdd565b604051602081830303815290604052907bffffffffffffffffffffffffffffffffffffffffffffffffffffffff19166020820180517bffffffffffffffffffffffffffffffffffffffffffffffffffffffff83818316178352505050509050919050565b6005600083815260200190815260200160002060009054906101000a900460ff16612dc5576040517f2083cd4000000000000000000000000000000000000000000000000000000000815260040160405180910390fd5b60006001600084815260200190815260200160002090508181600001541015612e1a576040517fea6c9b8400000000000000000000000000000000000000000000000000000000815260040160405180910390fd5b81816000016000828254612e2e9190614528565b925050819055506000816002016040518060400160405290816000820160009054906101000a90046fffffffffffffffffffffffffffffffff166fffffffffffffffffffffffffffffffff166fffffffffffffffffffffffffffffffff1681526020016000820160109054906101000a90046fffffffffffffffffffffffffffffffff166fffffffffffffffffffffffffffffffff166fffffffffffffffffffffffffffffffff168152505090506000816000015160018360200151612ef49190614590565b612efe91906145d4565b6fffffffffffffffffffffffffffffffff16905060008167ffffffffffffffff811115612f2e57612f2d613c77565b5b604051908082528060200260200182016040528015612f6757816020015b612f54613b32565b815260200190600190039081612f4c5790505b50905060008086905060005b8481101561316f57600087600101600088600001516fffffffffffffffffffffffffffffffff1681526020019081526020016000206040518060400160405290816000820160009054906101000a900473ffffffffffffffffffffffffffffffffffffffff1673ffffffffffffffffffffffffffffffffffffffff1673ffffffffffffffffffffffffffffffffffffffff1681526020016001820154815250509050806020015183106130c05787600201600001600081819054906101000a90046fffffffffffffffffffffffffffffffff168092919061305390614ff8565b91906101000a8154816fffffffffffffffffffffffffffffffff02191690836fffffffffffffffffffffffffffffffff1602179055505080602001518361309a9190614528565b9250808583815181106130b0576130af614618565b5b6020026020010181905250613155565b8281602001516130d09190614528565b88600101600089600001516fffffffffffffffffffffffffffffffff168152602001908152602001600020600101819055506040518060400160405280826000015173ffffffffffffffffffffffffffffffffffffffff1681526020018481525085838151811061314457613143614618565b5b60200260200101819052505061316f565b838061316090615030565b94505050806001019050612f73565b5060008467ffffffffffffffff81111561318c5761318b613c77565b5b6040519080825280602002602001820160405280156131c557816020015b6131b2613b32565b8152602001906001900390816131aa5790505b50905060005b83811015613217578481815181106131e6576131e5614618565b5b602002602001015182828151811061320157613200614618565b5b60200260200101819052508060010190506131cb565b5061322389898361333b565b505050505050505050565b60006001600085815260200190815260200160002090508281600001541015613283576040517fea6c9b8400000000000000000000000000000000000000000000000000000000815260040160405180910390fd5b828160000160008282546132979190614528565b9250508190555050505050565b60006132cf828473ffffffffffffffffffffffffffffffffffffffff1661397b90919063ffffffff16565b905060008151141580156132f45750808060200190518101906132f291906150a4565b155b1561333657826040517f5274afe700000000000000000000000000000000000000000000000000000000815260040161332d919061422a565b60405180910390fd5b505050565b6000838383604051602401613352939291906150d1565b6040516020818303038152906040527f0db2314b000000000000000000000000000000000000000000000000000000007bffffffffffffffffffffffffffffffffffffffffffffffffffffffff19166020820180517bffffffffffffffffffffffffffffffffffffffffffffffffffffffff838183161783525050505090507f760808593e092601b5067a4802e87b2033a1278181ac00e740c5ae38030a8ddb81604051613400919061510f565b60405180910390a16000600160008681526020019081526020016000206003016040518060800160405290816000820160009054906101000a900473ffffffffffffffffffffffffffffffffffffffff1673ffffffffffffffffffffffffffffffffffffffff1673ffffffffffffffffffffffffffffffffffffffff1681526020016001820160009054906101000a900473ffffffffffffffffffffffffffffffffffffffff1673ffffffffffffffffffffffffffffffffffffffff1673ffffffffffffffffffffffffffffffffffffffff1681526020016001820160149054906101000a900467ffffffffffffffff1667ffffffffffffffff1667ffffffffffffffff1681526020016002820160009054906101000a90046fffffffffffffffffffffffffffffffff166fffffffffffffffffffffffffffffffff166fffffffffffffffffffffffffffffffff16815250509050600060036000836040015167ffffffffffffffff1681526020019081526020016000206040518060400160405290816000820160009054906101000a900467ffffffffffffffff1667ffffffffffffffff1667ffffffffffffffff1681526020016000820160089054906101000a900473ffffffffffffffffffffffffffffffffffffffff1673ffffffffffffffffffffffffffffffffffffffff1673ffffffffffffffffffffffffffffffffffffffff1681525050905060006040518060a00160405280836020015160405160200161362f919061422a565b6040516020818303038152906040528152602001858152602001600067ffffffffffffffff81111561366457613663613c77565b5b60405190808252806020026020018201604052801561369d57816020015b61368a613b62565b8152602001906001900390816136825790505b5081526020017f000000000000000000000000000000000000000000000000000000000000000073ffffffffffffffffffffffffffffffffffffffff1681526020016137026040518060400160405280620f4240815260200160001515815250612cef565b815250905060007f000000000000000000000000000000000000000000000000000000000000000073ffffffffffffffffffffffffffffffffffffffff166320487ded8460000151846040518363ffffffff1660e01b8152600401613768929190614c2d565b602060405180830381865afa158015613785573d6000803e3d6000fd5b505050506040513d601f19601f820116820180604052508101906137a99190614c72565b905060007f000000000000000000000000000000000000000000000000000000000000000073ffffffffffffffffffffffffffffffffffffffff166370a08231306040518263ffffffff1660e01b8152600401613806919061422a565b602060405180830381865afa158015613823573d6000803e3d6000fd5b505050506040513d601f19601f820116820180604052508101906138479190614c72565b9050808211156138905780826040517f449a29870000000000000000000000000000000000000000000000000000000081526004016138879291906146e9565b60405180910390fd5b60007f000000000000000000000000000000000000000000000000000000000000000073ffffffffffffffffffffffffffffffffffffffff166396f4e9f98660000151866040518363ffffffff1660e01b81526004016138f1929190614c2d565b6020604051808303816000875af1158015613910573d6000803e3d6000fd5b505050506040513d601f19601f820116820180604052508101906139349190614cb4565b905089817f29b34b12cb22fe8c8709088e7ebb51f3897f10f3aa3a813728f065bcfa1839c08a6040516139679190614081565b60405180910390a350505050505050505050565b606061398983836000613991565b905092915050565b6060814710156139d857306040517fcd7860590000000000000000000000000000000000000000000000000000000081526004016139cf919061422a565b60405180910390fd5b6000808573ffffffffffffffffffffffffffffffffffffffff168486604051613a01919061516d565b60006040518083038185875af1925050503d8060008114613a3e576040519150601f19603f3d011682016040523d82523d6000602084013e613a43565b606091505b5091509150613a53868383613a5e565b925050509392505050565b606082613a7357613a6e82613aed565b613ae5565b60008251148015613a9b575060008473ffffffffffffffffffffffffffffffffffffffff163b145b15613add57836040517f9996b315000000000000000000000000000000000000000000000000000000008152600401613ad4919061422a565b60405180910390fd5b819050613ae6565b5b9392505050565b600081511115613b005780518082602001fd5b6040517f1425ea4200000000000000000000000000000000000000000000000000000000815260040160405180910390fd5b6040518060400160405280600073ffffffffffffffffffffffffffffffffffffffff168152602001600081525090565b6040518060400160405280600073ffffffffffffffffffffffffffffffffffffffff168152602001600081525090565b6000604051905090565b600080fd5b600080fd5b60007fffffffff0000000000000000000000000000000000000000000000000000000082169050919050565b613bdb81613ba6565b8114613be657600080fd5b50565b600081359050613bf881613bd2565b92915050565b600060208284031215613c1457613c13613b9c565b5b6000613c2284828501613be9565b91505092915050565b60008115159050919050565b613c4081613c2b565b82525050565b6000602082019050613c5b6000830184613c37565b92915050565b600080fd5b6000601f19601f8301169050919050565b7f4e487b7100000000000000000000000000000000000000000000000000000000600052604160045260246000fd5b613caf82613c66565b810181811067ffffffffffffffff82111715613cce57613ccd613c77565b5b80604052505050565b6000613ce1613b92565b9050613ced8282613ca6565b919050565b600080fd5b600073ffffffffffffffffffffffffffffffffffffffff82169050919050565b6000613d2282613cf7565b9050919050565b613d3281613d17565b8114613d3d57600080fd5b50565b600081359050613d4f81613d29565b92915050565b600067ffffffffffffffff82169050919050565b613d7281613d55565b8114613d7d57600080fd5b50565b600081359050613d8f81613d69565b92915050565b60006fffffffffffffffffffffffffffffffff82169050919050565b613dba81613d95565b8114613dc557600080fd5b50565b600081359050613dd781613db1565b92915050565b600060808284031215613df357613df2613c61565b5b613dfd6080613cd7565b90506000613e0d84828501613d40565b6000830152506020613e2184828501613d40565b6020830152506040613e3584828501613d80565b6040830152506060613e4984828501613dc8565b60608301525092915050565b600060808284031215613e6b57613e6a613b9c565b5b6000613e7984828501613ddd565b91505092915050565b6000819050919050565b613e9581613e82565b8114613ea057600080fd5b50565b600081359050613eb281613e8c565b92915050565b6000819050919050565b613ecb81613eb8565b8114613ed657600080fd5b50565b600081359050613ee881613ec2565b92915050565b60008060408385031215613f0557613f04613b9c565b5b6000613f1385828601613ea3565b9250506020613f2485828601613ed9565b9150509250929050565b613f3781613d55565b82525050565b6000602082019050613f526000830184613f2e565b92915050565b600060208284031215613f6e57613f6d613b9c565b5b6000613f7c84828501613ea3565b91505092915050565b600081519050919050565b600082825260208201905092915050565b6000819050602082019050919050565b613fba81613d17565b82525050565b613fc981613eb8565b82525050565b604082016000820151613fe56000850182613fb1565b506020820151613ff86020850182613fc0565b50505050565b600061400a8383613fcf565b60408301905092915050565b6000602082019050919050565b600061402e82613f85565b6140388185613f90565b935061404383613fa1565b8060005b8381101561407457815161405b8882613ffe565b975061406683614016565b925050600181019050614047565b5085935050505092915050565b6000602082019050818103600083015261409b8184614023565b905092915050565b6000604082840312156140b9576140b8613c61565b5b6140c36040613cd7565b905060006140d384828501613d80565b60008301525060206140e784828501613d40565b60208301525092915050565b6000806060838503121561410a57614109613b9c565b5b600061411885828601613ed9565b9250506020614129858286016140a3565b9150509250929050565b60006020828403121561414957614148613b9c565b5b600061415784828501613d40565b91505092915050565b6000806040838503121561417757614176613b9c565b5b600061418585828601613d40565b925050602061419685828601613ed9565b9150509250929050565b600080600080600060a086880312156141bc576141bb613b9c565b5b60006141ca88828901613d40565b95505060206141db88828901613d40565b94505060406141ec88828901613d80565b93505060606141fd88828901613ed9565b925050608061420e88828901613ed9565b9150509295509295909350565b61422481613d17565b82525050565b600060208201905061423f600083018461421b565b92915050565b600080fd5b600060a082840312156142605761425f614245565b5b81905092915050565b60006020828403121561427f5761427e613b9c565b5b600082013567ffffffffffffffff81111561429d5761429c613ba1565b5b6142a98482850161424a565b91505092915050565b6000602082840312156142c8576142c7613b9c565b5b60006142d684828501613ed9565b91505092915050565b60006040820190506142f46000830185613f2e565b614301602083018461421b565b9392505050565b6000806000806080858703121561432257614321613b9c565b5b600061433087828801613d40565b945050602061434187828801613d40565b935050604061435287828801613d80565b925050606061436387828801613ed9565b91505092959194509250565b61437881613e82565b82525050565b6000602082019050614393600083018461436f565b92915050565b600080604083850312156143b0576143af613b9c565b5b60006143be85828601613d40565b92505060206143cf85828601613d40565b9150509250929050565b6143e281613d95565b82525050565b60006040820190506143fd60008301856143d9565b61440a60208301846143d9565b9392505050565b61441a81613eb8565b82525050565b61442981613d95565b82525050565b6040820160008201516144456000850182614420565b5060208201516144586020850182614420565b50505050565b61446781613d55565b82525050565b6080820160008201516144836000850182613fb1565b5060208201516144966020850182613fb1565b5060408201516144a9604085018261445e565b5060608201516144bc6060850182614420565b50505050565b600060e0820190506144d76000830186614411565b6144e4602083018561442f565b6144f1606083018461446d565b949350505050565b7f4e487b7100000000000000000000000000000000000000000000000000000000600052601160045260246000fd5b600061453382613eb8565b915061453e83613eb8565b9250828203905081811115614556576145556144f9565b5b92915050565b600061456782613eb8565b915061457283613eb8565b925082820190508082111561458a576145896144f9565b5b92915050565b600061459b82613d95565b91506145a683613d95565b925082820190506fffffffffffffffffffffffffffffffff8111156145ce576145cd6144f9565b5b92915050565b60006145df82613d95565b91506145ea83613d95565b925082820390506fffffffffffffffffffffffffffffffff811115614612576146116144f9565b5b92915050565b7f4e487b7100000000000000000000000000000000000000000000000000000000600052603260045260246000fd5b600061465282613eb8565b915061465d83613eb8565b925082820261466b81613eb8565b91508282048414831517614682576146816144f9565b5b5092915050565b7f4e487b7100000000000000000000000000000000000000000000000000000000600052601260045260246000fd5b60006146c382613eb8565b91506146ce83613eb8565b9250826146de576146dd614689565b5b828204905092915050565b60006040820190506146fe6000830185614411565b61470b6020830184614411565b9392505050565b6000604082019050614727600083018561436f565b6147346020830184614411565b9392505050565b600080fd5b600080fd5b600067ffffffffffffffff8211156147605761475f613c77565b5b61476982613c66565b9050602081019050919050565b82818337600083830152505050565b600061479861479384614745565b613cd7565b9050828152602081018484840111156147b4576147b3614740565b5b6147bf848285614776565b509392505050565b600082601f8301126147dc576147db61473b565b5b81356147ec848260208601614785565b91505092915050565b600067ffffffffffffffff8211156148105761480f613c77565b5b602082029050602081019050919050565b600080fd5b60006040828403121561483c5761483b613c61565b5b6148466040613cd7565b9050600061485684828501613d40565b600083015250602061486a84828501613ed9565b60208301525092915050565b6000614889614884846147f5565b613cd7565b905080838252602082019050604084028301858111156148ac576148ab614821565b5b835b818110156148d557806148c18882614826565b8452602084019350506040810190506148ae565b5050509392505050565b600082601f8301126148f4576148f361473b565b5b8135614904848260208601614876565b91505092915050565b600060a0828403121561492357614922613c61565b5b61492d60a0613cd7565b9050600061493d84828501613ea3565b600083015250602061495184828501613d80565b602083015250604082013567ffffffffffffffff81111561497557614974613cf2565b5b614981848285016147c7565b604083015250606082013567ffffffffffffffff8111156149a5576149a4613cf2565b5b6149b1848285016147c7565b606083015250608082013567ffffffffffffffff8111156149d5576149d4613cf2565b5b6149e1848285016148df565b60808301525092915050565b60006149f9368361490d565b9050919050565b6000608082019050614a15600083018761421b565b614a22602083018661421b565b614a2f6040830185613f2e565b614a3c6060830184614411565b95945050505050565b600081519050919050565b600082825260208201905092915050565b60005b83811015614a7f578082015181840152602081019050614a64565b60008484015250505050565b6000614a9682614a45565b614aa08185614a50565b9350614ab0818560208601614a61565b614ab981613c66565b840191505092915050565b600081519050919050565b600082825260208201905092915050565b6000819050602082019050919050565b604082016000820151614b066000850182613fb1565b506020820151614b196020850182613fc0565b50505050565b6000614b2b8383614af0565b60408301905092915050565b6000602082019050919050565b6000614b4f82614ac4565b614b598185614acf565b9350614b6483614ae0565b8060005b83811015614b95578151614b7c8882614b1f565b9750614b8783614b37565b925050600181019050614b68565b5085935050505092915050565b600060a0830160008301518482036000860152614bbf8282614a8b565b91505060208301518482036020860152614bd98282614a8b565b91505060408301518482036040860152614bf38282614b44565b9150506060830151614c086060860182613fb1565b5060808301518482036080860152614c208282614a8b565b9150508091505092915050565b6000604082019050614c426000830185613f2e565b8181036020830152614c548184614ba2565b90509392505050565b600081519050614c6c81613ec2565b92915050565b600060208284031215614c8857614c87613b9c565b5b6000614c9684828501614c5d565b91505092915050565b600081519050614cae81613e8c565b92915050565b600060208284031215614cca57614cc9613b9c565b5b6000614cd884828501614c9f565b91505092915050565b6000819050602082019050919050565b6000614cfd8251613ba6565b80915050919050565b600082821b905092915050565b6000614d1e82614a45565b82614d2884614ce1565b9050614d3381614cf1565b92506004821015614d7357614d6e7fffffffff0000000000000000000000000000000000000000000000000000000083600403600802614d06565b831692505b5050919050565b600082825260208201905092915050565b6000614d9682614a45565b614da08185614d7a565b9350614db0818560208601614a61565b614db981613c66565b840191505092915050565b60006020820190508181036000830152614dde8184614d8b565b905092915050565b6000614df9614df484614745565b613cd7565b905082815260208101848484011115614e1557614e14614740565b5b614e20848285614a61565b509392505050565b600082601f830112614e3d57614e3c61473b565b5b8151614e4d848260208601614de6565b91505092915050565b600060208284031215614e6c57614e6b613b9c565b5b600082015167ffffffffffffffff811115614e8a57614e89613ba1565b5b614e9684828501614e28565b91505092915050565b614ea881613ba6565b82525050565b600082825260208201905092915050565b6000614eca82614a45565b614ed48185614eae565b9350614ee4818560208601614a61565b614eed81613c66565b840191505092915050565b6000604082019050614f0d6000830185614e9f565b8181036020830152614f1f8184614ebf565b90509392505050565b60008060408385031215614f3f57614f3e613b9c565b5b6000614f4d85828601614c9f565b9250506020614f5e85828601614c5d565b9150509250929050565b6000606082019050614f7d600083018661421b565b614f8a602083018561421b565b614f976040830184614411565b949350505050565b614fa881613c2b565b82525050565b604082016000820151614fc46000850182613fc0565b506020820151614fd76020850182614f9f565b50505050565b6000604082019050614ff26000830184614fae565b92915050565b600061500382613d95565b91506fffffffffffffffffffffffffffffffff8203615025576150246144f9565b5b600182019050919050565b600061503b82613eb8565b91507fffffffffffffffffffffffffffffffffffffffffffffffffffffffffffffffff820361506d5761506c6144f9565b5b600182019050919050565b61508181613c2b565b811461508c57600080fd5b50565b60008151905061509e81615078565b92915050565b6000602082840312156150ba576150b9613b9c565b5b60006150c88482850161508f565b91505092915050565b60006060820190506150e6600083018661436f565b6150f36020830185614411565b81810360408301526151058184614023565b9050949350505050565b600060208201905081810360008301526151298184614ebf565b905092915050565b600081905092915050565b600061514782614a45565b6151518185615131565b9350615161818560208601614a61565b80840191505092915050565b6000615179828461513c565b91508190509291505056fea26469706673582212202d39c529c11077a1c22511c9d2c5c75eb4eb50fa31d15f473c55d93cc1372f7964736f6c63430008170033",
  "linkReferences": {
    "contracts/SelectorLib.sol": {
      "SelectorLib": [
        {
          "length": 20,
          "start": 13536
        }
      ]
    }
  },
  "deployedLinkReferences": {
    "contracts/SelectorLib.sol": {
      "SelectorLib": [
        {
          "length": 20,
          "start": 10917
        }
      ]
    }
  }
}