{
  "_format": "hh-sol-artifact-1",
  "contractName": "CrossChainSwapper",
  "sourceName": "contracts/CrossChainSwapper.sol",
  "abi": [
    {
      "inputs": [
        {
          "internalType": "uint64",
          "name": "_sourceChainId",
          "type": "uint64"
        },
        {
          "components": [
            {
              "internalType": "address",
              "name": "sourceToken",
              "type": "address"
            },
            {
              "internalType": "address",
              "name": "destinationToken",
              "type": "address"
            },
            {
              "internalType": "uint64",
              "name": "destinationChainId",
              "type": "uint64"
            },
            {
              "internalType": "uint128",
              "name": "rate",
              "type": "uint128"
            }
          ],
          "internalType": "struct CrossChainSwapper.LiquidityPoolData[]",
          "name": "_validPools",
          "type": "tuple[]"
        },
        {
          "internalType": "address",
          "name": "_router",
          "type": "address"
        },
        {
          "internalType": "address",
          "name": "_linkToken",
          "type": "address"
        }
      ],
      "stateMutability": "nonpayable",
      "type": "constructor"
    },
    {
      "inputs": [
        {
          "internalType": "address",
          "name": "target",
          "type": "address"
        }
      ],
      "name": "AddressEmptyCode",
      "type": "error"
    },
    {
      "inputs": [
        {
          "internalType": "address",
          "name": "account",
          "type": "address"
        }
      ],
      "name": "AddressInsufficientBalance",
      "type": "error"
    },
    {
      "inputs": [],
      "name": "FailedInnerCall",
      "type": "error"
    },
    {
      "inputs": [],
      "name": "InvalidAmount",
      "type": "error"
    },
    {
      "inputs": [],
      "name": "InvalidPool",
      "type": "error"
    },
    {
      "inputs": [
        {
          "internalType": "address",
          "name": "router",
          "type": "address"
        }
      ],
      "name": "InvalidRouter",
      "type": "error"
    },
    {
      "inputs": [],
      "name": "InvalidToken",
      "type": "error"
    },
    {
      "inputs": [
        {
          "internalType": "uint256",
          "name": "balance",
          "type": "uint256"
        },
        {
          "internalType": "uint256",
          "name": "fees",
          "type": "uint256"
        }
      ],
      "name": "NotEnoughLink",
      "type": "error"
    },
    {
      "inputs": [],
      "name": "NotEnoughLockedTokens",
      "type": "error"
    },
    {
      "inputs": [],
      "name": "NotEnoughPoolLiquidity",
      "type": "error"
    },
    {
      "inputs": [],
      "name": "NotEnoughUnlockedTokens",
      "type": "error"
    },
    {
      "inputs": [],
      "name": "NotSwapperToken",
      "type": "error"
    },
    {
      "inputs": [
        {
          "internalType": "address",
          "name": "token",
          "type": "address"
        }
      ],
      "name": "SafeERC20FailedOperation",
      "type": "error"
    },
    {
      "anonymous": false,
      "inputs": [
        {
          "indexed": false,
          "internalType": "bytes32",
          "name": "poolKey",
          "type": "bytes32"
        },
        {
          "indexed": false,
          "internalType": "uint256",
          "name": "poolBalance",
          "type": "uint256"
        }
      ],
      "name": "MakeSwap",
      "type": "event"
    },
    {
      "anonymous": false,
      "inputs": [
        {
          "indexed": true,
          "internalType": "bytes32",
          "name": "messageId",
          "type": "bytes32"
        },
        {
          "indexed": true,
          "internalType": "bytes32",
          "name": "destinationPoolKey",
          "type": "bytes32"
        },
        {
          "components": [
            {
              "internalType": "address",
              "name": "maker",
              "type": "address"
            },
            {
              "internalType": "uint256",
              "name": "amount",
              "type": "uint256"
            }
          ],
          "indexed": false,
          "internalType": "struct CrossChainSwapper.MakerSwap[]",
          "name": "filledMakerSwaps",
          "type": "tuple[]"
        }
      ],
      "name": "MakerSwaps",
      "type": "event"
    },
    {
      "anonymous": false,
      "inputs": [
        {
          "indexed": false,
          "internalType": "bytes",
          "name": "messageData",
          "type": "bytes"
        }
      ],
      "name": "ReceiverCCIPMessage",
      "type": "event"
    },
    {
      "anonymous": false,
      "inputs": [
        {
          "indexed": true,
          "internalType": "bytes32",
          "name": "messageId",
          "type": "bytes32"
        },
        {
          "indexed": true,
          "internalType": "bytes32",
          "name": "destinationPoolKey",
          "type": "bytes32"
        }
      ],
      "name": "TakeSwap",
      "type": "event"
    },
    {
      "inputs": [
        {
          "internalType": "uint256",
          "name": "chainId",
          "type": "uint256"
        },
        {
          "components": [
            {
              "internalType": "uint64",
              "name": "ccipChainSelector",
              "type": "uint64"
            },
            {
              "internalType": "address",
              "name": "swapper",
              "type": "address"
            }
          ],
          "internalType": "struct CrossChainSwapper.DestinationData",
          "name": "_destination",
          "type": "tuple"
        }
      ],
      "name": "addDestination",
      "outputs": [],
      "stateMutability": "nonpayable",
      "type": "function"
    },
    {
      "inputs": [
        {
          "components": [
            {
              "internalType": "address",
              "name": "sourceToken",
              "type": "address"
            },
            {
              "internalType": "address",
              "name": "destinationToken",
              "type": "address"
            },
            {
              "internalType": "uint64",
              "name": "destinationChainId",
              "type": "uint64"
            },
            {
              "internalType": "uint128",
              "name": "rate",
              "type": "uint128"
            }
          ],
          "internalType": "struct CrossChainSwapper.LiquidityPoolData",
          "name": "_pool",
          "type": "tuple"
        }
      ],
      "name": "addLiquidityPool",
      "outputs": [],
      "stateMutability": "nonpayable",
      "type": "function"
    },
    {
      "inputs": [
        {
          "internalType": "address",
          "name": "sourceToken",
          "type": "address"
        },
        {
          "internalType": "address",
          "name": "destinationToken",
          "type": "address"
        },
        {
          "internalType": "uint64",
          "name": "destinationChainId",
          "type": "uint64"
        },
        {
          "internalType": "uint256",
          "name": "rate",
          "type": "uint256"
        }
      ],
      "name": "calcPoolKey",
      "outputs": [
        {
          "internalType": "bytes32",
          "name": "poolKey",
          "type": "bytes32"
        }
      ],
      "stateMutability": "pure",
      "type": "function"
    },
    {
      "inputs": [
        {
          "internalType": "bytes32",
          "name": "poolKey",
          "type": "bytes32"
        },
        {
          "internalType": "uint256",
          "name": "amount",
          "type": "uint256"
        }
      ],
      "name": "cancelSwap",
      "outputs": [],
      "stateMutability": "nonpayable",
      "type": "function"
    },
    {
      "inputs": [
        {
          "components": [
            {
              "internalType": "bytes32",
              "name": "messageId",
              "type": "bytes32"
            },
            {
              "internalType": "uint64",
              "name": "sourceChainSelector",
              "type": "uint64"
            },
            {
              "internalType": "bytes",
              "name": "sender",
              "type": "bytes"
            },
            {
              "internalType": "bytes",
              "name": "data",
              "type": "bytes"
            },
            {
              "components": [
                {
                  "internalType": "address",
                  "name": "token",
                  "type": "address"
                },
                {
                  "internalType": "uint256",
                  "name": "amount",
                  "type": "uint256"
                }
              ],
              "internalType": "struct Client.EVMTokenAmount[]",
              "name": "destTokenAmounts",
              "type": "tuple[]"
            }
          ],
          "internalType": "struct Client.Any2EVMMessage",
          "name": "message",
          "type": "tuple"
        }
      ],
      "name": "ccipReceive",
      "outputs": [],
      "stateMutability": "nonpayable",
      "type": "function"
    },
    {
      "inputs": [
        {
          "internalType": "address",
          "name": "token",
          "type": "address"
        },
        {
          "internalType": "uint256",
          "name": "amount",
          "type": "uint256"
        }
      ],
      "name": "deposit",
      "outputs": [],
      "stateMutability": "nonpayable",
      "type": "function"
    },
    {
      "inputs": [
        {
          "internalType": "uint256",
          "name": "",
          "type": "uint256"
        }
      ],
      "name": "destinations",
      "outputs": [
        {
          "internalType": "uint64",
          "name": "ccipChainSelector",
          "type": "uint64"
        },
        {
          "internalType": "address",
          "name": "swapper",
          "type": "address"
        }
      ],
      "stateMutability": "view",
      "type": "function"
    },
    {
      "inputs": [],
      "name": "getRouter",
      "outputs": [
        {
          "internalType": "address",
          "name": "",
          "type": "address"
        }
      ],
      "stateMutability": "view",
      "type": "function"
    },
    {
      "inputs": [],
      "name": "linkToken",
      "outputs": [
        {
          "internalType": "address",
          "name": "",
          "type": "address"
        }
      ],
      "stateMutability": "view",
      "type": "function"
    },
    {
      "inputs": [
        {
          "internalType": "bytes32",
          "name": "",
          "type": "bytes32"
        }
      ],
      "name": "liquidityPools",
      "outputs": [
        {
          "internalType": "uint256",
          "name": "balance",
          "type": "uint256"
        },
        {
          "components": [
            {
              "internalType": "uint128",
              "name": "next",
              "type": "uint128"
            },
            {
              "internalType": "uint128",
              "name": "last",
              "type": "uint128"
            }
          ],
          "internalType": "struct CrossChainSwapper.QueueMetaData",
          "name": "queueData",
          "type": "tuple"
        },
        {
          "components": [
            {
              "internalType": "address",
              "name": "sourceToken",
              "type": "address"
            },
            {
              "internalType": "address",
              "name": "destinationToken",
              "type": "address"
            },
            {
              "internalType": "uint64",
              "name": "destinationChainId",
              "type": "uint64"
            },
            {
              "internalType": "uint128",
              "name": "rate",
              "type": "uint128"
            }
          ],
          "internalType": "struct CrossChainSwapper.LiquidityPoolData",
          "name": "poolData",
          "type": "tuple"
        }
      ],
      "stateMutability": "view",
      "type": "function"
    },
    {
      "inputs": [
        {
          "internalType": "address",
          "name": "sourceToken",
          "type": "address"
        },
        {
          "internalType": "address",
          "name": "destinationToken",
          "type": "address"
        },
        {
          "internalType": "uint64",
          "name": "destinationChainId",
          "type": "uint64"
        },
        {
          "internalType": "uint256",
          "name": "rate",
          "type": "uint256"
        },
        {
          "internalType": "uint256",
          "name": "amount",
          "type": "uint256"
        }
      ],
      "name": "makeSwap",
      "outputs": [],
      "stateMutability": "nonpayable",
      "type": "function"
    },
    {
      "inputs": [
        {
          "internalType": "bytes32",
          "name": "poolKey",
          "type": "bytes32"
        }
      ],
      "name": "makerSwaps",
      "outputs": [
        {
          "components": [
            {
              "internalType": "address",
              "name": "maker",
              "type": "address"
            },
            {
              "internalType": "uint256",
              "name": "amount",
              "type": "uint256"
            }
          ],
          "internalType": "struct CrossChainSwapper.MakerSwap[]",
          "name": "makerSwaps_",
          "type": "tuple[]"
        }
      ],
      "stateMutability": "view",
      "type": "function"
    },
    {
      "inputs": [],
      "name": "sourceChainId",
      "outputs": [
        {
          "internalType": "uint64",
          "name": "",
          "type": "uint64"
        }
      ],
      "stateMutability": "view",
      "type": "function"
    },
    {
      "inputs": [
        {
          "internalType": "bytes4",
          "name": "interfaceId",
          "type": "bytes4"
        }
      ],
      "name": "supportsInterface",
      "outputs": [
        {
          "internalType": "bool",
          "name": "",
          "type": "bool"
        }
      ],
      "stateMutability": "pure",
      "type": "function"
    },
    {
      "inputs": [
        {
          "internalType": "address",
          "name": "sourceToken",
          "type": "address"
        },
        {
          "internalType": "address",
          "name": "destinationToken",
          "type": "address"
        },
        {
          "internalType": "uint64",
          "name": "destinationChainId",
          "type": "uint64"
        },
        {
          "internalType": "uint256",
          "name": "rate",
          "type": "uint256"
        },
        {
          "internalType": "uint256",
          "name": "amount",
          "type": "uint256"
        }
      ],
      "name": "takeSwap",
      "outputs": [],
      "stateMutability": "nonpayable",
      "type": "function"
    },
    {
      "inputs": [
        {
          "internalType": "address",
          "name": "",
          "type": "address"
        },
        {
          "internalType": "address",
          "name": "",
          "type": "address"
        }
      ],
      "name": "userBalances",
      "outputs": [
        {
          "internalType": "uint128",
          "name": "locked",
          "type": "uint128"
        },
        {
          "internalType": "uint128",
          "name": "unlocked",
          "type": "uint128"
        }
      ],
      "stateMutability": "view",
      "type": "function"
    },
    {
      "inputs": [
        {
          "internalType": "bytes32",
          "name": "",
          "type": "bytes32"
        }
      ],
      "name": "validPools",
      "outputs": [
        {
          "internalType": "bool",
          "name": "",
          "type": "bool"
        }
      ],
      "stateMutability": "view",
      "type": "function"
    },
    {
      "inputs": [
        {
          "internalType": "address",
          "name": "",
          "type": "address"
        }
      ],
      "name": "validSourceTokens",
      "outputs": [
        {
          "internalType": "bool",
          "name": "",
          "type": "bool"
        }
      ],
      "stateMutability": "view",
      "type": "function"
    },
    {
      "inputs": [
        {
          "internalType": "address",
          "name": "token",
          "type": "address"
        },
        {
          "internalType": "uint256",
          "name": "amount",
          "type": "uint256"
        }
      ],
      "name": "withdraw",
      "outputs": [],
      "stateMutability": "nonpayable",
      "type": "function"
    }
  ],
  "bytecode": "0x60e06040523480156200001157600080fd5b50604051620042e9380380620042e9833981810160405281019062000037919062000799565b81600073ffffffffffffffffffffffffffffffffffffffff168173ffffffffffffffffffffffffffffffffffffffff1603620000ad5760006040517fd7f73334000000000000000000000000000000000000000000000000000000008152600401620000a491906200083b565b60405180910390fd5b8073ffffffffffffffffffffffffffffffffffffffff1660808173ffffffffffffffffffffffffffffffffffffffff1681525050508367ffffffffffffffff1660a08167ffffffffffffffff16815250508073ffffffffffffffffffffffffffffffffffffffff1660c08173ffffffffffffffffffffffffffffffffffffffff168152505060005b835181101562000179576200016d84828151811062000159576200015862000858565b5b60200260200101516200022860201b60201c565b80600101905062000135565b508073ffffffffffffffffffffffffffffffffffffffff1663095ea7b3837fffffffffffffffffffffffffffffffffffffffffffffffffffffffffffffffff6040518363ffffffff1660e01b8152600401620001d7929190620008a2565b6020604051808303816000875af1158015620001f7573d6000803e3d6000fd5b505050506040513d601f19601f820116820180604052508101906200021d91906200090c565b50505050506200099c565b600160036000836000015173ffffffffffffffffffffffffffffffffffffffff1673ffffffffffffffffffffffffffffffffffffffff16815260200190815260200160002060006101000a81548160ff0219169083151502179055506000620002bc82600001518360200151846040015185606001516fffffffffffffffffffffffffffffffff166200045460201b60201c565b905060016004600083815260200190815260200160002060006101000a81548160ff021916908315150217905550600180600083815260200190815260200160002060020160000160006101000a8154816fffffffffffffffffffffffffffffffff02191690836fffffffffffffffffffffffffffffffff160217905550816001600083815260200190815260200160002060030160008201518160000160006101000a81548173ffffffffffffffffffffffffffffffffffffffff021916908373ffffffffffffffffffffffffffffffffffffffff16021790555060208201518160010160006101000a81548173ffffffffffffffffffffffffffffffffffffffff021916908373ffffffffffffffffffffffffffffffffffffffff16021790555060408201518160010160146101000a81548167ffffffffffffffff021916908367ffffffffffffffff16021790555060608201518160020160006101000a8154816fffffffffffffffffffffffffffffffff02191690836fffffffffffffffffffffffffffffffff1602179055509050505050565b6000848484846040516020016200046f94939291906200094f565b604051602081830303815290604052805190602001209050949350505050565b6000604051905090565b600080fd5b600080fd5b600067ffffffffffffffff82169050919050565b620004c281620004a3565b8114620004ce57600080fd5b50565b600081519050620004e281620004b7565b92915050565b600080fd5b6000601f19601f8301169050919050565b7f4e487b7100000000000000000000000000000000000000000000000000000000600052604160045260246000fd5b6200053882620004ed565b810181811067ffffffffffffffff821117156200055a5762000559620004fe565b5b80604052505050565b60006200056f6200048f565b90506200057d82826200052d565b919050565b600067ffffffffffffffff821115620005a0576200059f620004fe565b5b602082029050602081019050919050565b600080fd5b600080fd5b600073ffffffffffffffffffffffffffffffffffffffff82169050919050565b6000620005e882620005bb565b9050919050565b620005fa81620005db565b81146200060657600080fd5b50565b6000815190506200061a81620005ef565b92915050565b60006fffffffffffffffffffffffffffffffff82169050919050565b620006478162000620565b81146200065357600080fd5b50565b60008151905062000667816200063c565b92915050565b600060808284031215620006865762000685620005b6565b5b62000692608062000563565b90506000620006a48482850162000609565b6000830152506020620006ba8482850162000609565b6020830152506040620006d084828501620004d1565b6040830152506060620006e68482850162000656565b60608301525092915050565b600062000709620007038462000582565b62000563565b905080838252602082019050608084028301858111156200072f576200072e620005b1565b5b835b818110156200075c57806200074788826200066d565b84526020840193505060808101905062000731565b5050509392505050565b600082601f8301126200077e576200077d620004e8565b5b815162000790848260208601620006f2565b91505092915050565b60008060008060808587031215620007b657620007b562000499565b5b6000620007c687828801620004d1565b945050602085015167ffffffffffffffff811115620007ea57620007e96200049e565b5b620007f88782880162000766565b93505060406200080b8782880162000609565b92505060606200081e8782880162000609565b91505092959194509250565b6200083581620005db565b82525050565b60006020820190506200085260008301846200082a565b92915050565b7f4e487b7100000000000000000000000000000000000000000000000000000000600052603260045260246000fd5b6000819050919050565b6200089c8162000887565b82525050565b6000604082019050620008b960008301856200082a565b620008c8602083018462000891565b9392505050565b60008115159050919050565b620008e681620008cf565b8114620008f257600080fd5b50565b6000815190506200090681620008db565b92915050565b60006020828403121562000925576200092462000499565b5b60006200093584828501620008f5565b91505092915050565b6200094981620004a3565b82525050565b60006080820190506200096660008301876200082a565b6200097560208301866200082a565b6200098460408301856200093e565b62000993606083018462000891565b95945050505050565b60805160a05160c0516138f3620009f66000396000818161143c01528181611f91015261209b01526000818161095b0152610ed20152600081816114600152818161160101528181611ff7015261218001526138f36000f3fe608060405234801561001057600080fd5b50600436106101215760003560e01c80634e969515116100ad57806396dcecbe1161007157806396dcecbe14610317578063adb5198014610347578063b0f479a114610378578063cfedc64414610396578063f3fef3a3146103c857610121565b80634e969515146102745780634ece6dfc1461029057806357970e93146102ac57806385572ffb146102ca5780638dd4ba2e146102e657610121565b80631d06df6e116100f45780631d06df6e146101ac5780631e79d399146101dc57806325669e83146101f857806330e325551461022857806347e7ef241461025857610121565b806301ffc9a714610126578063028dcabe1461015657806314488fe4146101725780631544298e1461018e575b600080fd5b610140600480360381019061013b9190612632565b6103e4565b60405161014d919061267a565b60405180910390f35b610170600480360381019061016b9190612889565b6104b6565b005b61018c60048036038101906101879190612922565b6104c2565b005b610196610959565b6040516101a39190612971565b60405180910390f35b6101c660048036038101906101c1919061298c565b61097d565b6040516101d39190612ab5565b60405180910390f35b6101f660048036038101906101f19190612b27565b610ba7565b005b610212600480360381019061020d9190612b67565b610c38565b60405161021f919061267a565b60405180910390f35b610242600480360381019061023d919061298c565b610c58565b60405161024f919061267a565b60405180910390f35b610272600480360381019061026d9190612b94565b610c78565b005b61028e60048036038101906102899190612bd4565b610e62565b005b6102aa60048036038101906102a59190612bd4565b610f5c565b005b6102b461143a565b6040516102c19190612c5e565b60405180910390f35b6102e460048036038101906102df9190612c9d565b61145e565b005b61030060048036038101906102fb9190612ce6565b611503565b60405161030e929190612d13565b60405180910390f35b610331600480360381019061032c9190612d3c565b61155b565b60405161033e9190612db2565b60405180910390f35b610361600480360381019061035c9190612dcd565b611594565b60405161036f929190612e1c565b60405180910390f35b6103806115fd565b60405161038d9190612c5e565b60405180910390f35b6103b060048036038101906103ab919061298c565b611625565b6040516103bf93929190612ef6565b60405180910390f35b6103e260048036038101906103dd9190612b94565b61181f565b005b60007f85572ffb000000000000000000000000000000000000000000000000000000007bffffffffffffffffffffffffffffffffffffffffffffffffffffffff1916827bffffffffffffffffffffffffffffffffffffffffffffffffffffffff191614806104af57507f01ffc9a7000000000000000000000000000000000000000000000000000000007bffffffffffffffffffffffffffffffffffffffffffffffffffffffff1916827bffffffffffffffffffffffffffffffffffffffffffffffffffffffff1916145b9050919050565b6104bf81611af0565b50565b6004600083815260200190815260200160002060009054906101000a900460ff16610519576040517f2083cd4000000000000000000000000000000000000000000000000000000000815260040160405180910390fd5b6000600160008481526020019081526020016000206003016040518060800160405290816000820160009054906101000a900473ffffffffffffffffffffffffffffffffffffffff1673ffffffffffffffffffffffffffffffffffffffff1673ffffffffffffffffffffffffffffffffffffffff1681526020016001820160009054906101000a900473ffffffffffffffffffffffffffffffffffffffff1673ffffffffffffffffffffffffffffffffffffffff1673ffffffffffffffffffffffffffffffffffffffff1681526020016001820160149054906101000a900467ffffffffffffffff1667ffffffffffffffff1667ffffffffffffffff1681526020016002820160009054906101000a90046fffffffffffffffffffffffffffffffff166fffffffffffffffffffffffffffffffff166fffffffffffffffffffffffffffffffff1681525050905060008060003373ffffffffffffffffffffffffffffffffffffffff1673ffffffffffffffffffffffffffffffffffffffff1681526020019081526020016000206000836000015173ffffffffffffffffffffffffffffffffffffffff1673ffffffffffffffffffffffffffffffffffffffff1681526020019081526020016000206040518060400160405290816000820160009054906101000a90046fffffffffffffffffffffffffffffffff166fffffffffffffffffffffffffffffffff166fffffffffffffffffffffffffffffffff1681526020016000820160109054906101000a90046fffffffffffffffffffffffffffffffff166fffffffffffffffffffffffffffffffff166fffffffffffffffffffffffffffffffff168152505090508281600001516fffffffffffffffffffffffffffffffff1610156107d8576040517f1925ea0600000000000000000000000000000000000000000000000000000000815260040160405180910390fd5b60405180604001604052808483600001516fffffffffffffffffffffffffffffffff166108059190612f5c565b6fffffffffffffffffffffffffffffffff1681526020018483602001516fffffffffffffffffffffffffffffffff1661083e9190612f90565b6fffffffffffffffffffffffffffffffff168152506000803373ffffffffffffffffffffffffffffffffffffffff1673ffffffffffffffffffffffffffffffffffffffff1681526020019081526020016000206000846000015173ffffffffffffffffffffffffffffffffffffffff1673ffffffffffffffffffffffffffffffffffffffff16815260200190815260200160002060008201518160000160006101000a8154816fffffffffffffffffffffffffffffffff02191690836fffffffffffffffffffffffffffffffff16021790555060208201518160000160106101000a8154816fffffffffffffffffffffffffffffffff02191690836fffffffffffffffffffffffffffffffff16021790555090505050505050565b7f000000000000000000000000000000000000000000000000000000000000000081565b606060006001600084815260200190815260200160002090506000816002016040518060400160405290816000820160009054906101000a90046fffffffffffffffffffffffffffffffff166fffffffffffffffffffffffffffffffff166fffffffffffffffffffffffffffffffff1681526020016000820160109054906101000a90046fffffffffffffffffffffffffffffffff166fffffffffffffffffffffffffffffffff166fffffffffffffffffffffffffffffffff168152505090506000816000015160018360200151610a559190612fc4565b610a5f9190613008565b6fffffffffffffffffffffffffffffffff1690508067ffffffffffffffff811115610a8d57610a8c6126ab565b5b604051908082528060200260200182016040528015610ac657816020015b610ab3612566565b815260200190600190039081610aab5790505b50935060005b81811015610b9e578360010160008285600001516fffffffffffffffffffffffffffffffff16610afc9190612f90565b81526020019081526020016000206040518060400160405290816000820160009054906101000a900473ffffffffffffffffffffffffffffffffffffffff1673ffffffffffffffffffffffffffffffffffffffff1673ffffffffffffffffffffffffffffffffffffffff168152602001600182015481525050858281518110610b8857610b8761304c565b5b6020026020010181905250806001019050610acc565b50505050919050565b806002600084815260200190815260200160002060008201518160000160006101000a81548167ffffffffffffffff021916908367ffffffffffffffff16021790555060208201518160000160086101000a81548173ffffffffffffffffffffffffffffffffffffffff021916908373ffffffffffffffffffffffffffffffffffffffff1602179055509050505050565b60036020528060005260406000206000915054906101000a900460ff1681565b60046020528060005260406000206000915054906101000a900460ff1681565b600360008373ffffffffffffffffffffffffffffffffffffffff1673ffffffffffffffffffffffffffffffffffffffff16815260200190815260200160002060009054906101000a900460ff16610cfb576040517fc1ab6dc100000000000000000000000000000000000000000000000000000000815260040160405180910390fd5b6000811480610d1b57506fffffffffffffffffffffffffffffffff801681115b15610d52576040517f2c5211c600000000000000000000000000000000000000000000000000000000815260040160405180910390fd5b610d7f3330838573ffffffffffffffffffffffffffffffffffffffff16611d14909392919063ffffffff16565b806000803373ffffffffffffffffffffffffffffffffffffffff1673ffffffffffffffffffffffffffffffffffffffff16815260200190815260200160002060008473ffffffffffffffffffffffffffffffffffffffff1673ffffffffffffffffffffffffffffffffffffffff16815260200190815260200160002060000160108282829054906101000a90046fffffffffffffffffffffffffffffffff16610e289190612fc4565b92506101000a8154816fffffffffffffffffffffffffffffffff02191690836fffffffffffffffffffffffffffffffff1602179055505050565b6000610e708686868661155b565b90506004600082815260200190815260200160002060009054906101000a900460ff16610ec9576040517f2083cd4000000000000000000000000000000000000000000000000000000000815260040160405180910390fd5b6000610f0a86887f000000000000000000000000000000000000000000000000000000000000000087670de0b6b3a7640000610f0591906130aa565b61155b565b9050600084670de0b6b3a764000085610f2391906130db565b610f2d91906130aa565b90506000600160008581526020019081526020016000209050610f51818484611d96565b505050505050505050565b6000610f6a8686868661155b565b90506004600082815260200190815260200160002060009054906101000a900460ff16610fc3576040517f2083cd4000000000000000000000000000000000000000000000000000000000815260040160405180910390fd5b60008060003373ffffffffffffffffffffffffffffffffffffffff1673ffffffffffffffffffffffffffffffffffffffff16815260200190815260200160002060008873ffffffffffffffffffffffffffffffffffffffff1673ffffffffffffffffffffffffffffffffffffffff1681526020019081526020016000206040518060400160405290816000820160009054906101000a90046fffffffffffffffffffffffffffffffff166fffffffffffffffffffffffffffffffff166fffffffffffffffffffffffffffffffff1681526020016000820160109054906101000a90046fffffffffffffffffffffffffffffffff166fffffffffffffffffffffffffffffffff166fffffffffffffffffffffffffffffffff168152505090508281602001516fffffffffffffffffffffffffffffffff161015611131576040517fa14bb0e400000000000000000000000000000000000000000000000000000000815260040160405180910390fd5b60405180604001604052808483600001516fffffffffffffffffffffffffffffffff1661115e9190612f90565b6fffffffffffffffffffffffffffffffff1681526020018483602001516fffffffffffffffffffffffffffffffff166111979190612f5c565b6fffffffffffffffffffffffffffffffff168152506000803373ffffffffffffffffffffffffffffffffffffffff1673ffffffffffffffffffffffffffffffffffffffff16815260200190815260200160002060008973ffffffffffffffffffffffffffffffffffffffff1673ffffffffffffffffffffffffffffffffffffffff16815260200190815260200160002060008201518160000160006101000a8154816fffffffffffffffffffffffffffffffff02191690836fffffffffffffffffffffffffffffffff16021790555060208201518160000160106101000a8154816fffffffffffffffffffffffffffffffff02191690836fffffffffffffffffffffffffffffffff1602179055509050506000600160008481526020019081526020016000209050838160000160008282546112d39190612f90565b92505081905550600060018260020160000160109054906101000a90046fffffffffffffffffffffffffffffffff1661130c9190612fc4565b905060405180604001604052803373ffffffffffffffffffffffffffffffffffffffff16815260200186815250826001016000836fffffffffffffffffffffffffffffffff16815260200190815260200160002060008201518160000160006101000a81548173ffffffffffffffffffffffffffffffffffffffff021916908373ffffffffffffffffffffffffffffffffffffffff16021790555060208201518160010155905050808260020160000160106101000a8154816fffffffffffffffffffffffffffffffff02191690836fffffffffffffffffffffffffffffffff1602179055507f66001c45494a559c7edade4a194d11da08f6b4a90ee4571b38ef9f16e4d0828484836000015460405161142792919061311d565b60405180910390a1505050505050505050565b7f000000000000000000000000000000000000000000000000000000000000000081565b7f000000000000000000000000000000000000000000000000000000000000000073ffffffffffffffffffffffffffffffffffffffff163373ffffffffffffffffffffffffffffffffffffffff16146114ee57336040517fd7f733340000000000000000000000000000000000000000000000000000000081526004016114e59190612c5e565b60405180910390fd5b611500816114fb906133f8565b61225b565b50565b60026020528060005260406000206000915090508060000160009054906101000a900467ffffffffffffffff16908060000160089054906101000a900473ffffffffffffffffffffffffffffffffffffffff16905082565b600084848484604051602001611574949392919061340b565b604051602081830303815290604052805190602001209050949350505050565b6000602052816000526040600020602052806000526040600020600091509150508060000160009054906101000a90046fffffffffffffffffffffffffffffffff16908060000160109054906101000a90046fffffffffffffffffffffffffffffffff16905082565b60007f0000000000000000000000000000000000000000000000000000000000000000905090565b6001602052806000526040600020600091509050806000015490806002016040518060400160405290816000820160009054906101000a90046fffffffffffffffffffffffffffffffff166fffffffffffffffffffffffffffffffff166fffffffffffffffffffffffffffffffff1681526020016000820160109054906101000a90046fffffffffffffffffffffffffffffffff166fffffffffffffffffffffffffffffffff166fffffffffffffffffffffffffffffffff168152505090806003016040518060800160405290816000820160009054906101000a900473ffffffffffffffffffffffffffffffffffffffff1673ffffffffffffffffffffffffffffffffffffffff1673ffffffffffffffffffffffffffffffffffffffff1681526020016001820160009054906101000a900473ffffffffffffffffffffffffffffffffffffffff1673ffffffffffffffffffffffffffffffffffffffff1673ffffffffffffffffffffffffffffffffffffffff1681526020016001820160149054906101000a900467ffffffffffffffff1667ffffffffffffffff1667ffffffffffffffff1681526020016002820160009054906101000a90046fffffffffffffffffffffffffffffffff166fffffffffffffffffffffffffffffffff166fffffffffffffffffffffffffffffffff1681525050905083565b600360008373ffffffffffffffffffffffffffffffffffffffff1673ffffffffffffffffffffffffffffffffffffffff16815260200190815260200160002060009054906101000a900460ff166118a2576040517fc1ab6dc100000000000000000000000000000000000000000000000000000000815260040160405180910390fd5b60008114806118c357506fffffffffffffffffffffffffffffffff80168110155b156118fa576040517f2c5211c600000000000000000000000000000000000000000000000000000000815260040160405180910390fd5b6000803373ffffffffffffffffffffffffffffffffffffffff1673ffffffffffffffffffffffffffffffffffffffff16815260200190815260200160002060008373ffffffffffffffffffffffffffffffffffffffff1673ffffffffffffffffffffffffffffffffffffffff16815260200190815260200160002060000160109054906101000a90046fffffffffffffffffffffffffffffffff166fffffffffffffffffffffffffffffffff168111156119e0576040517fa14bb0e400000000000000000000000000000000000000000000000000000000815260040160405180910390fd5b806000803373ffffffffffffffffffffffffffffffffffffffff1673ffffffffffffffffffffffffffffffffffffffff16815260200190815260200160002060008473ffffffffffffffffffffffffffffffffffffffff1673ffffffffffffffffffffffffffffffffffffffff16815260200190815260200160002060000160108282829054906101000a90046fffffffffffffffffffffffffffffffff16611a899190613008565b92506101000a8154816fffffffffffffffffffffffffffffffff02191690836fffffffffffffffffffffffffffffffff160217905550611aec3330838573ffffffffffffffffffffffffffffffffffffffff16611d14909392919063ffffffff16565b5050565b600160036000836000015173ffffffffffffffffffffffffffffffffffffffff1673ffffffffffffffffffffffffffffffffffffffff16815260200190815260200160002060006101000a81548160ff0219169083151502179055506000611b7c82600001518360200151846040015185606001516fffffffffffffffffffffffffffffffff1661155b565b905060016004600083815260200190815260200160002060006101000a81548160ff021916908315150217905550600180600083815260200190815260200160002060020160000160006101000a8154816fffffffffffffffffffffffffffffffff02191690836fffffffffffffffffffffffffffffffff160217905550816001600083815260200190815260200160002060030160008201518160000160006101000a81548173ffffffffffffffffffffffffffffffffffffffff021916908373ffffffffffffffffffffffffffffffffffffffff16021790555060208201518160010160006101000a81548173ffffffffffffffffffffffffffffffffffffffff021916908373ffffffffffffffffffffffffffffffffffffffff16021790555060408201518160010160146101000a81548167ffffffffffffffff021916908367ffffffffffffffff16021790555060608201518160020160006101000a8154816fffffffffffffffffffffffffffffffff02191690836fffffffffffffffffffffffffffffffff1602179055509050505050565b611d90848573ffffffffffffffffffffffffffffffffffffffff166323b872dd868686604051602401611d4993929190613450565b604051602081830303815290604052915060e01b6020820180517bffffffffffffffffffffffffffffffffffffffffffffffffffffffff8381831617835250505050612299565b50505050565b60008282604051602401611dab92919061311d565b6040516020818303038152906040527fc3a5273a000000000000000000000000000000000000000000000000000000007bffffffffffffffffffffffffffffffffffffffffffffffffffffffff19166020820180517bffffffffffffffffffffffffffffffffffffffffffffffffffffffff838183161783525050505090506000600260008660030160010160149054906101000a900467ffffffffffffffff1667ffffffffffffffff1681526020019081526020016000206040518060400160405290816000820160009054906101000a900467ffffffffffffffff1667ffffffffffffffff1667ffffffffffffffff1681526020016000820160089054906101000a900473ffffffffffffffffffffffffffffffffffffffff1673ffffffffffffffffffffffffffffffffffffffff1673ffffffffffffffffffffffffffffffffffffffff1681525050905060006040518060a001604052808360200151604051602001611f1b9190612c5e565b6040516020818303038152906040528152602001848152602001600067ffffffffffffffff811115611f5057611f4f6126ab565b5b604051908082528060200260200182016040528015611f8957816020015b611f76612596565b815260200190600190039081611f6e5790505b5081526020017f000000000000000000000000000000000000000000000000000000000000000073ffffffffffffffffffffffffffffffffffffffff168152602001611fee6040518060400160405280624c4b40815260200160001515815250612330565b815250905060007f000000000000000000000000000000000000000000000000000000000000000073ffffffffffffffffffffffffffffffffffffffff166320487ded8460000151846040518363ffffffff1660e01b815260040161205492919061366f565b602060405180830381865afa158015612071573d6000803e3d6000fd5b505050506040513d601f19601f8201168201806040525081019061209591906136b4565b905060007f000000000000000000000000000000000000000000000000000000000000000073ffffffffffffffffffffffffffffffffffffffff166370a08231306040518263ffffffff1660e01b81526004016120f29190612c5e565b602060405180830381865afa15801561210f573d6000803e3d6000fd5b505050506040513d601f19601f8201168201806040525081019061213391906136b4565b90508082111561217c5780826040517f449a29870000000000000000000000000000000000000000000000000000000081526004016121739291906136e1565b60405180910390fd5b60007f000000000000000000000000000000000000000000000000000000000000000073ffffffffffffffffffffffffffffffffffffffff166396f4e9f98660000151866040518363ffffffff1660e01b81526004016121dd92919061366f565b6020604051808303816000875af11580156121fc573d6000803e3d6000fd5b505050506040513d601f19601f82011682018060405250810190612220919061371f565b905087817f9a423f7ead97ea5fb61a9a125899566bf5fe4499c8bfdf10c84f0d1fe9af546f60405160405180910390a3505050505050505050565b7f516955e175f67b2569896e33db2d1dee6d67786485b8a65d6556e5b530d484e9816060015160405161228e9190613796565b60405180910390a150565b60006122c4828473ffffffffffffffffffffffffffffffffffffffff166123af90919063ffffffff16565b905060008151141580156122e95750808060200190518101906122e791906137e4565b155b1561232b57826040517f5274afe70000000000000000000000000000000000000000000000000000000081526004016123229190612c5e565b60405180910390fd5b505050565b60606397a657c960e01b8260405160240161234b919061384f565b604051602081830303815290604052907bffffffffffffffffffffffffffffffffffffffffffffffffffffffff19166020820180517bffffffffffffffffffffffffffffffffffffffffffffffffffffffff83818316178352505050509050919050565b60606123bd838360006123c5565b905092915050565b60608147101561240c57306040517fcd7860590000000000000000000000000000000000000000000000000000000081526004016124039190612c5e565b60405180910390fd5b6000808573ffffffffffffffffffffffffffffffffffffffff16848660405161243591906138a6565b60006040518083038185875af1925050503d8060008114612472576040519150601f19603f3d011682016040523d82523d6000602084013e612477565b606091505b5091509150612487868383612492565b925050509392505050565b6060826124a7576124a282612521565b612519565b600082511480156124cf575060008473ffffffffffffffffffffffffffffffffffffffff163b145b1561251157836040517f9996b3150000000000000000000000000000000000000000000000000000000081526004016125089190612c5e565b60405180910390fd5b81905061251a565b5b9392505050565b6000815111156125345780518082602001fd5b6040517f1425ea4200000000000000000000000000000000000000000000000000000000815260040160405180910390fd5b6040518060400160405280600073ffffffffffffffffffffffffffffffffffffffff168152602001600081525090565b6040518060400160405280600073ffffffffffffffffffffffffffffffffffffffff168152602001600081525090565b6000604051905090565b600080fd5b600080fd5b60007fffffffff0000000000000000000000000000000000000000000000000000000082169050919050565b61260f816125da565b811461261a57600080fd5b50565b60008135905061262c81612606565b92915050565b600060208284031215612648576126476125d0565b5b60006126568482850161261d565b91505092915050565b60008115159050919050565b6126748161265f565b82525050565b600060208201905061268f600083018461266b565b92915050565b600080fd5b6000601f19601f8301169050919050565b7f4e487b7100000000000000000000000000000000000000000000000000000000600052604160045260246000fd5b6126e38261269a565b810181811067ffffffffffffffff82111715612702576127016126ab565b5b80604052505050565b60006127156125c6565b905061272182826126da565b919050565b600080fd5b600073ffffffffffffffffffffffffffffffffffffffff82169050919050565b60006127568261272b565b9050919050565b6127668161274b565b811461277157600080fd5b50565b6000813590506127838161275d565b92915050565b600067ffffffffffffffff82169050919050565b6127a681612789565b81146127b157600080fd5b50565b6000813590506127c38161279d565b92915050565b60006fffffffffffffffffffffffffffffffff82169050919050565b6127ee816127c9565b81146127f957600080fd5b50565b60008135905061280b816127e5565b92915050565b60006080828403121561282757612826612695565b5b612831608061270b565b9050600061284184828501612774565b600083015250602061285584828501612774565b6020830152506040612869848285016127b4565b604083015250606061287d848285016127fc565b60608301525092915050565b60006080828403121561289f5761289e6125d0565b5b60006128ad84828501612811565b91505092915050565b6000819050919050565b6128c9816128b6565b81146128d457600080fd5b50565b6000813590506128e6816128c0565b92915050565b6000819050919050565b6128ff816128ec565b811461290a57600080fd5b50565b60008135905061291c816128f6565b92915050565b60008060408385031215612939576129386125d0565b5b6000612947858286016128d7565b92505060206129588582860161290d565b9150509250929050565b61296b81612789565b82525050565b60006020820190506129866000830184612962565b92915050565b6000602082840312156129a2576129a16125d0565b5b60006129b0848285016128d7565b91505092915050565b600081519050919050565b600082825260208201905092915050565b6000819050602082019050919050565b6129ee8161274b565b82525050565b6129fd816128ec565b82525050565b604082016000820151612a1960008501826129e5565b506020820151612a2c60208501826129f4565b50505050565b6000612a3e8383612a03565b60408301905092915050565b6000602082019050919050565b6000612a62826129b9565b612a6c81856129c4565b9350612a77836129d5565b8060005b83811015612aa8578151612a8f8882612a32565b9750612a9a83612a4a565b925050600181019050612a7b565b5085935050505092915050565b60006020820190508181036000830152612acf8184612a57565b905092915050565b600060408284031215612aed57612aec612695565b5b612af7604061270b565b90506000612b07848285016127b4565b6000830152506020612b1b84828501612774565b60208301525092915050565b60008060608385031215612b3e57612b3d6125d0565b5b6000612b4c8582860161290d565b9250506020612b5d85828601612ad7565b9150509250929050565b600060208284031215612b7d57612b7c6125d0565b5b6000612b8b84828501612774565b91505092915050565b60008060408385031215612bab57612baa6125d0565b5b6000612bb985828601612774565b9250506020612bca8582860161290d565b9150509250929050565b600080600080600060a08688031215612bf057612bef6125d0565b5b6000612bfe88828901612774565b9550506020612c0f88828901612774565b9450506040612c20888289016127b4565b9350506060612c318882890161290d565b9250506080612c428882890161290d565b9150509295509295909350565b612c588161274b565b82525050565b6000602082019050612c736000830184612c4f565b92915050565b600080fd5b600060a08284031215612c9457612c93612c79565b5b81905092915050565b600060208284031215612cb357612cb26125d0565b5b600082013567ffffffffffffffff811115612cd157612cd06125d5565b5b612cdd84828501612c7e565b91505092915050565b600060208284031215612cfc57612cfb6125d0565b5b6000612d0a8482850161290d565b91505092915050565b6000604082019050612d286000830185612962565b612d356020830184612c4f565b9392505050565b60008060008060808587031215612d5657612d556125d0565b5b6000612d6487828801612774565b9450506020612d7587828801612774565b9350506040612d86878288016127b4565b9250506060612d978782880161290d565b91505092959194509250565b612dac816128b6565b82525050565b6000602082019050612dc76000830184612da3565b92915050565b60008060408385031215612de457612de36125d0565b5b6000612df285828601612774565b9250506020612e0385828601612774565b9150509250929050565b612e16816127c9565b82525050565b6000604082019050612e316000830185612e0d565b612e3e6020830184612e0d565b9392505050565b612e4e816128ec565b82525050565b612e5d816127c9565b82525050565b604082016000820151612e796000850182612e54565b506020820151612e8c6020850182612e54565b50505050565b612e9b81612789565b82525050565b608082016000820151612eb760008501826129e5565b506020820151612eca60208501826129e5565b506040820151612edd6040850182612e92565b506060820151612ef06060850182612e54565b50505050565b600060e082019050612f0b6000830186612e45565b612f186020830185612e63565b612f256060830184612ea1565b949350505050565b7f4e487b7100000000000000000000000000000000000000000000000000000000600052601160045260246000fd5b6000612f67826128ec565b9150612f72836128ec565b9250828203905081811115612f8a57612f89612f2d565b5b92915050565b6000612f9b826128ec565b9150612fa6836128ec565b9250828201905080821115612fbe57612fbd612f2d565b5b92915050565b6000612fcf826127c9565b9150612fda836127c9565b925082820190506fffffffffffffffffffffffffffffffff81111561300257613001612f2d565b5b92915050565b6000613013826127c9565b915061301e836127c9565b925082820390506fffffffffffffffffffffffffffffffff81111561304657613045612f2d565b5b92915050565b7f4e487b7100000000000000000000000000000000000000000000000000000000600052603260045260246000fd5b7f4e487b7100000000000000000000000000000000000000000000000000000000600052601260045260246000fd5b60006130b5826128ec565b91506130c0836128ec565b9250826130d0576130cf61307b565b5b828204905092915050565b60006130e6826128ec565b91506130f1836128ec565b92508282026130ff816128ec565b9150828204841483151761311657613115612f2d565b5b5092915050565b60006040820190506131326000830185612da3565b61313f6020830184612e45565b9392505050565b600080fd5b600080fd5b600067ffffffffffffffff82111561316b5761316a6126ab565b5b6131748261269a565b9050602081019050919050565b82818337600083830152505050565b60006131a361319e84613150565b61270b565b9050828152602081018484840111156131bf576131be61314b565b5b6131ca848285613181565b509392505050565b600082601f8301126131e7576131e6613146565b5b81356131f7848260208601613190565b91505092915050565b600067ffffffffffffffff82111561321b5761321a6126ab565b5b602082029050602081019050919050565b600080fd5b60006040828403121561324757613246612695565b5b613251604061270b565b9050600061326184828501612774565b60008301525060206132758482850161290d565b60208301525092915050565b600061329461328f84613200565b61270b565b905080838252602082019050604084028301858111156132b7576132b661322c565b5b835b818110156132e057806132cc8882613231565b8452602084019350506040810190506132b9565b5050509392505050565b600082601f8301126132ff576132fe613146565b5b813561330f848260208601613281565b91505092915050565b600060a0828403121561332e5761332d612695565b5b61333860a061270b565b90506000613348848285016128d7565b600083015250602061335c848285016127b4565b602083015250604082013567ffffffffffffffff8111156133805761337f612726565b5b61338c848285016131d2565b604083015250606082013567ffffffffffffffff8111156133b0576133af612726565b5b6133bc848285016131d2565b606083015250608082013567ffffffffffffffff8111156133e0576133df612726565b5b6133ec848285016132ea565b60808301525092915050565b60006134043683613318565b9050919050565b60006080820190506134206000830187612c4f565b61342d6020830186612c4f565b61343a6040830185612962565b6134476060830184612e45565b95945050505050565b60006060820190506134656000830186612c4f565b6134726020830185612c4f565b61347f6040830184612e45565b949350505050565b600081519050919050565b600082825260208201905092915050565b60005b838110156134c15780820151818401526020810190506134a6565b60008484015250505050565b60006134d882613487565b6134e28185613492565b93506134f28185602086016134a3565b6134fb8161269a565b840191505092915050565b600081519050919050565b600082825260208201905092915050565b6000819050602082019050919050565b60408201600082015161354860008501826129e5565b50602082015161355b60208501826129f4565b50505050565b600061356d8383613532565b60408301905092915050565b6000602082019050919050565b600061359182613506565b61359b8185613511565b93506135a683613522565b8060005b838110156135d75781516135be8882613561565b97506135c983613579565b9250506001810190506135aa565b5085935050505092915050565b600060a083016000830151848203600086015261360182826134cd565b9150506020830151848203602086015261361b82826134cd565b915050604083015184820360408601526136358282613586565b915050606083015161364a60608601826129e5565b506080830151848203608086015261366282826134cd565b9150508091505092915050565b60006040820190506136846000830185612962565b818103602083015261369681846135e4565b90509392505050565b6000815190506136ae816128f6565b92915050565b6000602082840312156136ca576136c96125d0565b5b60006136d88482850161369f565b91505092915050565b60006040820190506136f66000830185612e45565b6137036020830184612e45565b9392505050565b600081519050613719816128c0565b92915050565b600060208284031215613735576137346125d0565b5b60006137438482850161370a565b91505092915050565b600082825260208201905092915050565b600061376882613487565b613772818561374c565b93506137828185602086016134a3565b61378b8161269a565b840191505092915050565b600060208201905081810360008301526137b0818461375d565b905092915050565b6137c18161265f565b81146137cc57600080fd5b50565b6000815190506137de816137b8565b92915050565b6000602082840312156137fa576137f96125d0565b5b6000613808848285016137cf565b91505092915050565b61381a8161265f565b82525050565b60408201600082015161383660008501826129f4565b5060208201516138496020850182613811565b50505050565b60006040820190506138646000830184613820565b92915050565b600081905092915050565b600061388082613487565b61388a818561386a565b935061389a8185602086016134a3565b80840191505092915050565b60006138b28284613875565b91508190509291505056fea2646970667358221220281a49a1b7004f772ffb84289ad294b5a033e5a8c4ad187c32a0d179cfac836064736f6c63430008170033",
  "linkReferences": {},
  "deployedLinkReferences": {}
}